:020000040000fa
:10000000f07f002091370000972b00007b2e00002e
:1000100000000000000000000000000000000000e0
:10002000000000000000000000000000c3270000e6
:100030000000000000000000c3270000c3270000ec
:10004000c3270000c3270000c3270000c327000008
:10005000c3270000c3270000c3270000c3270000f8
:10006000c3270000c3270000c32700002d13000092
:10007000c32700000000000000000000c3270000ac
:10008000c3270000c3270000c3270000c3270000c8
:10009000c32700000000000000000000c32700008c
:1000a000c3270000c3270000c3270000c3270000a8
:020000040000fa
:1000b000f8b5c046f8bc08bc9e467047e136000063
:1000c000f8b5c046f8bc08bc9e467047b93600007b
:020000040000fa
:1000d000c40200201c000000000000006802002094
:1000e0003000000001000000000300006c00000070
:1000f000a0860100000000000000000000000000d9
:10010000000000000000000000000000dc0500000e
:1001100014000000f80200200c0300200c00000076
:100120000100000000000000e002002000000000cc
:10013000e00200201800000001000000f14500006e
:10014000f5450000bf320000d52f0000133f00002e
:10015000f9450000f8020020140000000100000032
:10016000393b00004d3c00008d3f0000f54400008d
:10017000551b0000180300200400000000000000d0
:100180000000002034000000000000009802002061
:100190002c0000000000000034000020610000007e
:1001a000000000001c03002004000000010000000b
:1001b000080200200802002060000000010000008a
:1001c000000000001c4200003c420000fc41000016
:1001d000000000000000000000000000000000001f
:1001e000000000000000000000000000000000000f
:1001f00000000000000000000000000000000000ff
:1002000000000000000000000000000000000000ee
:1002100000000000000000000000000000000000de
:100220009c0000206c010000010000004300000061
:1002300000000000000000000000000000000000be
:10024000000000000000000000000000430000006b
:10025000000000000000000000000000000000009e
:10026000000000000000000000000000430000004b
:10027000000000000000000000000000000000007e
:10028000000000000000000000000000430000002b
:10029000000000000000000000000000000000005e
:1002a000000000000000000000000000430000000b
:1002b000000000000000000000000000000000003e
:1002c00000000000000000000000000043000000eb
:1002d000000000000000000000000000000000001e
:1002e00000000000000000000000000043000000cb
:1002f00000000000000000000000000000000000fe
:100300000000000000000000000000005743000053
:10031000e540000000000000601d0000794500007d
:1003200078450000784500007845000078450000d9
:1003300078450000784500007845000078450000c9
:1003400078450000fffffffffffffffffffffffffc
:10035000ffff000001004153434949000000000035
:10036000000000000000000000000000000000008d
:100370000000000000004153434949000000000014
:10038000000000000000000000000000000000006d
:100390000000000000000000200300200400000016
:1003a0000000000024030020040000000000000002
:1003b0009800002004000000000000002803002036
:1003c0000400000000000000000000000000000029
:020000040000fa
:1003d000f7b543024a025b0a520a4e0044000193f9
:1003e00000939446240ec50fdb00360ec90fd200d1
:1003f000ff2e01d1002a01d101204140a01ba942ba
:1004000000d0a1e000282edd002e18d1002a00d156
:100410004ae1411e00290ed101249b185a015bd5e7
:100420000134ff2c00d13de10122a4491a405b08b0
:100430000b40134350e0ff2807d1ff244ce0ff2c72
:100440004ad08021c9040a4301001b2901dd012291
:1004500007e010002026c840711a8a40511e8a41c8
:1004600002439b18dae7002821d0002c0cd1002b86
:1004700007d0c043002802d19b183400cee7ff2ede
:1004800008d11300340027e0ff2efad08021c904e0
:1004900040420b431b2801dd0123ede71900202416
:1004a000c140201a8340581e83410b43e4e7611c7e
:1004b000ff260f003740012f3fdc002c2bd1002bf3
:1004c00000d1eae0002a07d09b188022d204134210
:1004d00002d001247a4a13405a0704d00f221a404e
:1004e000042a00d004335a0105d50134ff2c00d171
:1004f000e1e0734a1340db08ff2c04d1002b02d04b
:100500008022d20313435b02e4b2e405580aed07ec
:1005100020432843febd002b00d1c0e03400002a58
:10052000dad08023019adb031a4203d062461a42d2
:1005300000d10092009bdb007fe7ff2900d1b0e0f3
:100540009b185b080c00c7e7002826dd002e13d19e
:10055000002a00d1a8e0411e002906d101249b1adf
:100560005a01b9d59b019e097ae0ff2800d164e7c2
:100570001b2908dd01220ee0ff2cadd08021c9042b
:100580000a430100f4e710002026c840711a8a408f
:10059000511e8a4102439b1ae2e7002822d0002c18
:1005a0000dd1002b08d0c043002803d1d31a34004a
:1005b0000d00d5e7ff2e08d11300340020e0ff2ef8
:1005c000fad08024e404404223431b2801dd0123a8
:1005d000ece71c002025c440281a8340581e8341a4
:1005e0002343e3e7ff20661c0640012e31dc002c8c
:1005f00017d1002b06d11d00002a00d16ce7130093
:100600000d0069e7002a00d166e78026981af604f3
:10061000304201d0d31af3e7031e00d05ce71d007f
:100620005ae7002b04d1002a40d013000d0004e744
:100630000400002a00d14fe78023019adb031a420d
:1006400000d177e762461a4200d073e700920d00ae
:1006500070e780209e1ac004064215d00d00d61afd
:10066000300003f02ffa330005388340844210dc59
:10067000041b1a0020200134e240041ba3405e1e2c
:10068000b3410024134327e7002ee9d1330034009f
:10069000c5e7241a0a4803401ee713001ce71300ad
:1006a000cbe60c00002317e7040015e780230400c5
:1006b0009b04150010e700231de7c046ffffff7de8
:1006c000fffffffbf7b54602730a802644004a028b
:1006d0004f00520a240e3f0ef6040093c50f0192fc
:1006e000db00c90fd200e01bb4468d4200d0a0e071
:1006f00000282edd002f18d1002a00d146e1411e2e
:1007000000290ed101249b185a015ad50134ff2c1f
:1007100000d139e10122a2491a405b080b40134382
:100720004fe0ff2807d1ff244be0ff2c49d03100d8
:1007300011430a0001001b2901dd012207e010001e
:100740002026c840711a8a40511e8a4102439b18d4
:10075000dae7002821d0002c0cd1002b07d0c043b1
:10076000002802d19b183c00cee7ff2f08d11300d0
:100770003c0026e0ff2ffad0310019430b00404225
:100780001b2801dd0123ede719002024c140201ab8
:100790008340581e83410b43e4e7611cff270e0092
:1007a0003e40012e3edc002c2ad1002b00d1e6e099
:1007b000002a06d09b186246134202d00124794acf
:1007c00013405a0704d00f221a40042a00d00433e1
:1007d0005a0105d50134ff2c00d1dee0714a1340e7
:1007e000db08ff2c04d1002b02d08022d20313435c
:1007f0005b02e4b2e405580aed0720432843febd3e
:10080000002b00d1bde03c00002adad08023009a02
:10081000db031a4203d0019a1a4200d10092009bd6
:10082000db0080e7ff2900d1ade09b185b080c00de
:10083000c7e7002826dd002f13d1002a00d1a5e04c
:10084000411e002906d101249b1a5a01b9d59b01ea
:100850009e0977e0ff2800d165e71b2908dd01220a
:100860000ee0ff2cadd0310011430a000100f4e787
:1008700010002026c840711a8a40511e8a41024346
:100880009b1ae2e7002822d0002c0dd1002b08d0c3
:10089000c043002803d1d31a3c000d00d5e7ff2f39
:1008a00008d113003c0020e0ff2ffad034001c4395
:1008b000230040421b2801dd0123ece71c0020251a
:1008c000c440281a8340581e83412343e3e7ff2096
:1008d000671c0740012f2fdc002c15d1002b06d1ff
:1008e0001d00002a00d16ce713000d0069e7002a03
:1008f00000d166e7981a304201d0d31af5e7031efb
:1009000000d05ee71d005ce7002b04d1002a3fd039
:1009100013000d0007e70400002a00d151e78023ef
:10092000009adb031a4200d179e7019a1a4200d0fb
:1009300075e700920d0072e760469e1a064215d0d8
:100940000d00d61a300003f0bdf83300053883409f
:10095000844210dc041b1a0020200134e240041bf6
:10096000a3405e1eb341002413432ae7002ee9d1c1
:1009700033003400c6e7241a0a48034021e7130075
:100980001fe71300cfe60c0000231ae7040018e766
:10099000802304009b04150013e7002320e7c046d2
:0809a000ffffff7dfffffffbdd
:020000040000fa
:1009a800f0b58bb006920a00433207930590049283
:1009b8000a7e0c00109b6e2a00d190e017d8632a9b
:1009c8002dd008d8002a00d19ae0582a55d0260000
:1009d800423632702ae0642a01d0692af7d12168a8
:1009e8001a68080624d5111d1960156826e0732aaf
:1009f80000d189e008d86f2a2ad0702ae7d12022ae
:100a080009680a43226003e0752a21d0782aded1da
:100a180022007821453211706d4a113230e00e0003
:100a28001a684236111d196013683370012379e082
:100a38004906d8d5111d19600023d55e002d03daab
:100a48002d23049a6d421370614b0a2703932fe0fc
:100a580020681968050603d5081d18600d6805e0ab
:100a68004006f9d50d68081d1860adb2584b082727
:100a780003936f2a18d00a2716e045310a70544aa2
:100a880003921a682168101d18601568080622d597
:100a9800cb0702d52023194321601027002d03d14d
:100aa800202322689a4322602300002243331a70cd
:100ab8006368a360002b5cdb0422216891432160fa
:100ac800002d58d1049e002b64d02600039b42368b
:100ad8001b7833705ee04806dad5adb2d8e709680e
:100ae8001a68080605d5111d1960136862691a602d
:100af80006e04906f7d5111d19601368a28a1a8005
:100b08000023049e236154e01a68111d19601668b9
:100b180000216268300003f03cfc002801d0801bf3
:100b28006060636823610023049a137041e02369bd
:100b3800320006990598079da847431c43d02368af
:100b480000259b070fd4099be06898423dda1800fe
:100b58003be022000123193206990598079eb04709
:100b6800431c30d00135e368099a9b1a9d42f0db9b
:100b7800e9e7002da9d0049e2800390001f038ffcc
:100b8800039b013e5b5c28003370390001f0f4fee2
:100b9800051ef1d1082f09d12368db0706d5636844
:100ba8002269934202dc3023013e3370049b9b1b75
:100bb8002361079b09aa00932100069b059801f071
:100bc800abfb431cb3d1012040420bb0f0bdc04683
:040bd800ba4100001e
:020000040000fa
:100bdc00f0b59fb006000f0015000593002804d057
:100bec008369002b01d102f0fffa764b9f425ed154
:100bfc007768bb891b0764d53b69002b61d0002348
:100c0c0006ac63612023637630230395a376039da2
:100c1c002b78002b5fd1039beb1a04930dd0049b14
:100c2c00039a3900300002f03dfe431c00d1c2e0b3
:100c3c006269049b9446634463612b78002b00d15a
:100c4c00b9e00122532100235242626002aa5218d9
:100c5c0001352360e360a3601370a3650522297836
:100c6c00594803f094fb6a1c002838d12168cb0644
:100c7c0006d520239c46532302a8c0186346037054
:100c8c000b0706d52b239c46532302a8c01863469a
:100c9c0003702b782a2b2bd000200a21e3682a78aa
:100cac00303a092a69d900282ad0e36028e0474b5a
:100cbc009f4201d1b7689ce7454b9f4299d1f76899
:100ccc0097e73900300001f041fa002897d0012055
:100cdc0040421fb0f0bd252b9dd0013598e73a4b13
:100cec002168c01a012383400b4323601500b5e72c
:100cfc00059b181d1b680590002b38dbe360150065
:100d0c002b782e2b0bd16b786a1c2a2b3dd1059b93
:100d1c0002351a1d1b680592002b33db63602978a2
:100d2c0003222c4803f033fb002807d0294b226800
:100d3c00c01a40238340134323600135224829788d
:100d4c006b1c06220a300393217603f020fb05aac4
:100d5c000092214b3a002100002828d0300003f0eb
:100d6c003efc431c27d06369181860614fe75b4257
:100d7c00e36002230b432360c1e74b4301359b180f
:100d8c0001208ce701235b42c8e7002315000a20f1
:100d9c001a00636029783039092903d9002bbed099
:100dac006260bce74243013552180123f2e7300080
:100dbc00fff7f4fdd5e7bb895b0600d587e76069d3
:100dcc0087e7c0461c420000c04400003c420000c3
:0c0ddc00fc410000c6440000b1380000db
:020000040000fa
:100de800f0b5c30f85b0440245000391640a2d0e87
:100df8000293019330d0ff2d3ad08023e400db0426
:100e08007f3d1c4300950027039b5e025d00db0fbe
:100e1800760a2d0e039334d0ff2d3cd08022280073
:100e28000025f600d20416437f38039b029a5a40e5
:100e3800009b9c4684446346b80028430138591ceb
:100e48000e2833d803f0f6fa2f2f8c7b7bad8c7be2
:100e5800ad7b8c7a7a7a6b00002c0fd0200002f0e0
:100e68002dfe7626431f76429c40331a0093cae72c
:100e780000950327002cc7d10227c5e70094012756
:100e8800c2e7301e0dd002f019fe431f9e407623a4
:100e98005b42181ac9e728000325002ec5d1022590
:100ea800c3e70125c1e734002f0048e0b7b2a3b279
:100eb800200c3c00350c47435c4368435d43230cde
:100ec800ed195b199f4202d980256d024019a4b221
:100ed8001d042d19ac01671ebc41ad0e25431c0c29
:100ee8002418a4012c4323013dd5012360081c408c
:100ef80004430d007f35002d37dd630704d00f2331
:100f08002340042b00d00434230103d580310d0085
:100f1800284b1c40e308fe2d19dd00230ce080233c
:100f2800db031c4204d01e4202d13400039b019310
:100f38008023019adb032343ff2508e0029a022f4e
:100f4800ebd0032f31d000231d00012fd1d158023f
:100f5800edb2ed05400ad2072843104305b0f0bdb5
:100f68003400039aa0e76146c3e70120451b1b2d07
:100f78001ddc23002020eb40451bac40611e8c414a
:100f88002343590704d00f211940042900d0043302
:100f98008025ed041d40db08002dd8d00023012555
:100fa800d5e780240023e403c1e70192c0e70023ca
:100fb8001d00cce7fffffff7f0b5c30f85b0440273
:100fc80045000391640a2d0e029301930ad0ff2d68
:100fd80038d08023e400db047f3d1c432e0000232f
:100fe80000930ae0002c33d0200002f067fd76263b
:100ff800431f9c407642361a0095039b5f025d00b2
:10100800db0f7f0a2d0e039325d0ff2d2dd08022d4
:1010180028000025ff00d20417437f38039b029a5b
:10102800361a5a40009b9800284301380e2824d8c5
:1010380003f000fa4e9d639d979d634e4e9763792a
:10104800797954002e000323002cc9d10223c7e765
:1010580026000123c4e7381e0dd002f02ffd431fe0
:101068009f4076235b42181ad8e728000325002ff3
:10107800d4d10225d2e70125d0e764017801844262
:1010880028d31a210123241a012527005b006400b4
:10109800002f01dba04201d8241a2b430139002973
:1010a800f3d1611e8c411c4331007f3100293cdda6
:1010b800630704d00f232340042b00d004342301fa
:1010c80003d531002b4b80311c40e308fe2921dd7c
:1010d800002310e0013e1b210023d5e78023db031a
:1010e8001c4204d01f4202d13c00039b0193802381
:1010f800019adb032343ff210ce03c00039a00958f
:10110800009b022be4d0032b2fd00023009819005a
:101118000128c9d15802c9b2c905400ad2070843f3
:10112800104305b0f0bd029aeae70120411a1b29d5
:101138001ddc23002020cb40411a8c40611e8c41cd
:101148002343590704d00f211940042900d0043340
:101158008021c9041940db080029dbd000230121c4
:10116800d8e780240023e403c0e70192bfe7002307
:081178001900cfe7fffffff7ac
:020000040000fa
:10118000f0b5de4657464e464546e0b5d5b00b9025
:10119000002a00d1c0e00b00920189180a910200d8
:1011a000a8320992604a91465ce0029d0195029046
:1011b0005846bc462700140002000b25ea410500f2
:1011c0000626f541554002001926f24155404a468f
:1011d0008a58049e8e59b0464244ad18029a024085
:1011e0009046019a824346467240aa18d318039d3e
:1011f000ab469b4425000d26f54122000226f24114
:101200006a4025005646f5416a4065467d402540c6
:1012100066463e4075405219d2180431019b65461e
:10122000039580256d00a942bfd13d006746089b0c
:101230009c4659460c920d940e9510911190029b6c
:101240001293019b13930f9763460599079804c95e
:101250001c68a446624404c38342f8d1069b0a9ae0
:101260009a4259d014a8402294469c44624664464f
:10127000069202001978d17059789170997851705e
:10128000d978117004330432a342f3d14268816be0
:1012900013000724e34114001225ec416340d208f7
:1012a00053400268446aa44662449b180a00112411
:1012b000e2410c001325ec416240890a4a409b1828
:1012c0000364043044ab9842e0d10b9b88229046e3
:1012d00043449c460cab05936246099802ca02c37c
:1012e0008242fbd10792139a129b0193119b0293a6
:1012f00010980f9b98460e9f0d9b0c9c002514a9df
:10130000049116218a4661460891bc461f001300cd
:101310002900424603924fe755b03cbc904699469f
:0c132000a246ab46f0bdc046641e0000b3
:020000040000fa
:10132c0010b5654b9b7d002b17d0634b5b8b9b07dc
:10133c0014d5624bff212022995402212122995469
:10134c0020235e4ad35c5bb2013300d183e02023bf
:10135c005a4ad35c062b00d195e010bd564b5b8be3
:10136c00db0707d5554bff2120229954022121225e
:10137c009954e5e7504b5b8b5b0707d54f4bff212f
:10138c0020229954012121229954d9e720234b4a38
:10139c00d35c5bb2032b40d0042b0fd0022bcfd1ec
:1013ac001369002b04d09088002102f097f8c7e74e
:1013bc00424b9888012102f091f8c1e73f4a9369aa
:1013cc001269934208d03d4a9168581c9061c95cdf
:1013dc002823394ad154b3e7384b5b69002b0ed024
:1013ec00364b9b885b0001221343334a5362d3690b
:1013fc00002bfcd103212023304ad154a0e72e4ae4
:10140c005168c0239b020b435360d369002bfcd162
:10141c0006212023294ad15492e7284a5369013bdb
:10142c00d2699a4209d0254bd968da69501cd86127
:10143c0028232148c35c8b5482e71f4a5168e02360
:10144c00db020b435360d369002bfcd10621202314
:10145c001a4ad154e7e700212023d154164a516887
:10146c00c0239b020b435360d369002bfcd1832216
:10147c00114b1a76114b5b6a002b00d16de70f4aaa
:10148c00906a984769e71300002220215a542121c1
:10149c005a548322084b1a76190030224b8b134076
:1014ac00102bfbd1054b5b6a002b00d155e7034a8f
:1014bc00906a984751e7c0460010004298020020fd
:020000040000fa
:1014cc00f0b5de4657464e464546e0b587b08246f7
:1014dc00029117001800049310ab1a78934611abc5
:1014ec001a78039212ab1a7805925246002a00d150
:1014fc00a0e0002f00d1a5e0002800d1a4e00368f3
:10150c00984600230360002400250e1e6bd00f2389
:10151c009946464601970de0039b002b09d00335f5
:10152c00ae4200d294e02023019a135402e005004d
:10153c0000e00500a81c864200d28be053461b5de0
:10154c00019a521994461909092920d801323031cf
:10155c006746397049460b40092b1dd93733137038
:10156c000134029ba3421ad0002ce0d05b46002b26
:10157c00d2d04b462342cfd10435ae4266d3019b29
:10158c009c4660440222344902f082ffd2e70132c9
:10159c00373167463970dde730331370e0e7b0461a
:1015ac000600019f059b002b25d000281bd03c007a
:1015bc003b189b4603239a4681465f46a34603e0ad
:1015cc0032700134a7420cd02600257802f088fe38
:1015dc0040194378524613402a00022bf0d1203a8e
:1015ec00eee74e465f46049b1e600020b04522d9b4
:1015fc000023bb551fe00028f5d03c003b189b4650
:10160c0003239a4681465f46a34603e032700134b9
:10161c00bc420cd02600257802f062fe40194378bb
:10162c00524613402a00012bf0d12032eee74e46f1
:10163c005f46d8e7e22007b03cbc90469946a246ec
:10164c00ab46f0bde220f6e7e220f4e7ed20f2e74e
:0c165c00ed20f0e7ed20eee7fc4500007b
:020000040000fa
:10166800f0b51d004f4b85b01e6804000f000092b6
:10167800002e05d0b369002b02d1300001f0b6fd71
:10168800494b9c4250d17468009b022b05d0012b1a
:1016980000d984e0002d00da81e02100300001f05b
:1016a800c9fe616b002908d023004433994202d057
:1016b800300001f0cff8002363630023a361636067
:1016c800a3891b0603d52169300001f0c3f8a3895b
:1016d800364a1340a381009b022b5ad003ab02aabf
:1016e8002100300001f026ffa3891843a081002db6
:1016f80024d1029d280002f0b1fe0195071e42d1b7
:10170800029b0193ab4239d1012040420223a289b6
:101718001343a3810023a36023004733236023617d
:101728000123636105b0f0bd214b9c4201d1b4682f
:10173800aae7204b9c42a7d1f468a5e7002fd9d08f
:10174800b369002b02d1300001f050fd009b012b42
:1017580003d1a389009a1a43a2810820a38927608c
:1017680027616561184018d001201840002398426d
:1017780011d06d42a360a5611800d3e7019802f06b
:101788006dfe071ec0d08023a289019d1343a3814b
:10179800d6e70020bae7a560c4e7a060c2e7012049
:1017a8004042bfe71c0300201c4200005cf3ffff1f
:0817b8003c420000fc4100006e
:020000040000fa
:1017c00061746361635f73775f736861325f323541
:1017d000365f696e6974206661696c65642077693b
:1017e000746820616e206572726f722025303258e5
:1017f0000d0a000061746361635f73775f736861f2
:10180000325f3235365f7570646174652066616978
:101810006c6564207769746820616e206572726ff0
:101820007220253032580d0a000000000d0a436175
:101830006c63756c61746564204170706c69636180
:1018400074696f6e204469676573743a0d0a257375
:101850000d0a00000d0a4170706c69636174696f54
:101860006e20536967616e747572652066726f6d64
:10187000206669726d776172653a0d0a25730d0aeb
:10188000000000000d0a4669726d7761726520697b
:10189000732076616c696461746564207375636339
:1018a00065737366756c6c79206261736564206f13
:1018b0006e2073746f726564206469676573742049
:1018c0006f6e2053450d00000d0a4669726d7761f9
:1018d0007265206973206e6f742076616c69646133
:1018e000746564207375636365737366756c6c7976
:1018f000000000000d0a4a756d70696e6720746ff4
:1019000020746865206170706c69636174696f6ec2
:041910000d00c046c0
:020000040000fa
:10191400f0b5de4657464646c0b592b007900591ed
:1019240006929b461b9b98460023119302291fd8bd
:10193400059b022b27d0002304934346002b1bd086
:101944001a9b002b27d011ab069a0599079800f033
:10195400b9fd0490002823d143465b44119a934275
:1019640021d85b465b099a462027002400253de0e8
:10197400e22000f062f80490049812b01cbc904677
:101984009a46a346f0bd069b0f2bd4d9e22000f063
:1019940054f80490f0e7e22000f04ff80490ebe7ed
:1019a40000f04bf8e8e7e22000f047f80490e3e7a2
:1019b40053465b01119ad31a1f2b19d85b465b1946
:1019c4009b0807241c40042712e000f036f8d3e7f4
:1019d4001a9b581909ab9c466144320002f05cfd25
:1019e400ad19202f25d00134a845c5d9202fdfd02b
:1019f40053466a461374137c029709aa0192e2b211
:101a04000092069a0599079800f082fe0490002837
:101a1400dbd15346db001b199b0000219b4501d9f8
:101a24005a46d11a7b1a4246561b9e42d0d91e00f2
:0a1a3400cee701239c46e244d6e70a
:020000040000fa
:021a3e007047ef
:020000040000fa
:101a4000f7b58a8905000c00130760d44b68002b9a
:101a500004dc0b6c002b01dc0020febde76a002fcc
:101a6000fad000232e682b6080235b011a4034d00b
:101a7000606da3895b0706d56368c01a636b002b92
:101a800001d0236cc01a0200216a00232800e76af3
:101a9000b847a189431c06d12b681d2b31d82c4a8d
:101aa000da40d3072dd50023636023692360cb047c
:101ab00005d5431c02d12b68002b00d16065616bfa
:101ac0002e600029c8d023004433994202d0280058
:101ad00000f0c4fe00206063bfe70123216a2800f4
:101ae000b847431cc5d12b68002bc2d01d2b01d099
:101af000162b01d12e60afe74023a2891343a381a7
:101b0000abe740230b430120a3814042a5e70f69c7
:101b1000002fa1d00b680f60db1b019300239207fd
:101b200000d14b69a360019b002b00dc94e7019b73
:101b30003a00216a2800a66ab047002803dc402347
:101b4000a2891343dfe7019b3f181b1a0193eae7c1
:041b50000100402030
:020000040000fa
:101b540070b5002841d00468002900d135496300dc
:101b64000020994262d3344b9c425fd8080001f0b4
:101b740083f9051c200001f07ff9011c281cfff7e4
:101b84001dfa061c2d49281cfff72cf92c49fef7d9
:101b940097fd011c301cfef719fc02f01df905002d
:101ba400284b9c4208d8ff235b00ff209d4219d894
:101bb400012d14d9680815e07e23ff33984210d80c
:101bc400032834d94000032100f0d8fe0602032183
:101bd400280000f0d3fe304304e0002026e001207a
:101be40000e019481749a14289414942174a13683c
:101bf4000224a3431360d369002bfcd1134bd86098
:101c04001a68090612480240114319601a68022131
:101c14000a431a601a00d369002bfcd110220b4b23
:101c24005a831a00d369002bfcd1012070bd0948e6
:101c3400d8e7c046006cdc0240420f0095bfd633a3
:101c440000002041801a06007fff000000100042bf
:081c5400fffffffc010200008c
:020000040000fa
:101c5c00f0b5de4657464e46c0b584b005000e00c2
:101c6c00080002f0b5fa0090300002f085fb070086
:101c7c0003239a4677239b460023994615e0336845
:101c8c001b78002b1cd153462b706b7801332a0028
:101c9c000099300001f006fa0400e72815d14b46f4
:101cac003374013f7b1c002b11dd337c032be6d0fe
:101cbc00300001f082fe0028e1d153463374dee798
:101ccc00012be2d15b462b70dfe700280fd0336885
:101cdc005b78052b04d0300001f09efc022333749a
:101cec00200004b01cbc91469a46a346f0bd0120ce
:101cfc0002f076fb164fab1d0193c0252a00002184
:101d0c00019c200002f0f8fb02abdd8006332200c0
:101d1c000099300000f09ef9041e10d0022002f051
:101d2c005ffb013f002fe9d1d1e7019801f06dff76
:101d3c00041eccd1019801f08bfa0400c7e702ab6a
:101d4c00dc88032cf1d860426041e6300400bee729
:041d5c00e30400009c
:020000040000fa
:101d6000002020202020202020202828282828206b
:101d70002020202020202020202020202020202063
:101d800020881010101010101010101010101010cb
:101d900010040404040404040404041010101010bb
:101da0001010414141414141010101010101010185
:101db00001010101010101010101010110101010d7
:101dc0001010424242424242020202020202020257
:101dd00002020202020202020202020210101010ab
:101de00020000000000000000000000000000000d3
:101df00000000000000000000000000000000000e3
:101e000000000000000000000000000000000000d2
:101e100000000000000000000000000000000000c2
:101e200000000000000000000000000000000000b2
:101e300000000000000000000000000000000000a2
:101e40000000000000000000000000000000000092
:101e50000000000000000000000000000000000082
:011e60000081
:020000040000fa
:101e6400982f8a4291443771cffbc0b5a5dbb5e901
:101e74005bc25639f111f159a4823f92d55e1cab75
:101e840098aa07d8015b8312be853124c37d0c5503
:101e9400745dbe72feb1de80a706dc9b74f19bc14b
:101ea400c1699be48647beefc69dc10fcca10c243b
:101eb4006f2ce92daa84744adca9b05cda88f9761f
:101ec40052513e986dc631a8c82703b0c77f59bf89
:101ed400f30be0c64791a7d55163ca0667292914b5
:101ee400850ab72738211b2efc6d2c4d130d385352
:101ef40054730a65bb0a6a762ec9c281852c729214
:101f0400a1e8bfa24b661aa8708b4bc2a3516cc741
:101f140019e892d1240699d685350ef470a06a107a
:101f240016c1a419086c371e4c774827b5bcb034c9
:101f3400b30c1c394aaad84e4fca9c5bf36f2e6867
:101f4400ee828f746f63a5781478c8840802c78cf6
:101f5400faffbe90eb6c50a4f7a3f9bef27871c6f9
:020000040000fa
:101f6400f0b5d6464f4680b585b0060000f0f1f8ce
:101f74000700e224002865d002f002fa05003000d0
:101f840002f02af90190013dedb2334b994602abc0
:101f94009e1c04239a4614e00023002200213800ea
:101fa40002f07af804004de00393534603aa062195
:101fb400380002f071f8041e3bd0ff2d42d0013de1
:101fc400edb23b689b684b451ad94b460393534685
:101fd40003aa0621380002f05ff80400f528dbd0dc
:101fe400002300220021380001f07cfe380002f0ba
:101ff4005ff902f06cfa53463380002cddd10ce01b
:10200400002300220021380001f06cfe380002f0a9
:102014004ff902f05cfa53463380330003aa019966
:10202400380002f027f8041e12d13b689b684b4528
:10203400bad8318803a801f02bfa0400ff2d01d08f
:102044000028bcd1200005b00cbc91469a46f0bdd6
:0c205400ff2db4d1f6e7c046a0860100c5
:020000040000fa
:10206000f0b585b00500019116001f00012202abfa
:10207000da80002f29d0002e27d002f021f8002886
:1020800028d1002300220421280002f007f80400d0
:10209000f52801d000280fd12b681b78012b21d007
:1020a000002202ab5a71012302aa053201992800cd
:1020b00001f01afe041e19d0002300220521280079
:1020c00001f0ecff200005b0f0bde220fff7b7fc07
:1020d0000400f7e73b0032000021280001f0ccffac
:1020e0000400efe7882202ab5a71dce702ab06334b
:1020f00032000199280001f0bfff041e0cd1327894
:1021000002abda803b88934209d3032a0cd8e6203d
:10211000fff795fc0400cfe7fff791fccce7ed203b
:10212000fff78dfc0400c7e702ab0633013a1a80c3
:10213000721c0199280001f09fff041e07d102ab19
:102140009a1ddb8801339bb213803b80b4e7fff715
:0621500076fc0400b0e77c
:020000040000fa
:022156007047d0
:020000040000fa
:10215800364b70b51d6806000c00002d05d0ab6924
:10216800002b02d1280001f041f8314b9c420fd1dd
:102178006c680c23e25e93b219072dd4d90611d4ea
:1021880009233360402301201343a381404270bddb
:10219800284b9c4201d1ac68ebe7274b9c42e8d125
:1021a800ec68e6e75b0713d5616b002908d02300cc
:1021b8004433994202d0300000f04cfb00236363a3
:1021c8002422a3899343a3810023636023692360a6
:1021d8000823a2891343a3812369002b0bd1a021d3
:1021e8008022a389890092000b40934203d02100ea
:1021f800300000f089fd0123a289134011d000238b
:10220800a36063695b42a361002023698342bed156
:102218000c23e25e1306bad540231343a381013889
:10222800b5e7920700d46369a360ede71c030020bb
:0c2238001c4200003c420000fc41000081
:020000040000fa
:1022440070b505000e00002804d08369002b01d16d
:1022540000f0ceffab69ac68002b02d1280000f07f
:10226400c7ff2a4b9c421bd16c680c23e25e80237f
:102274009b011a4205d11343a381226e244b1340c0
:102284002366a3891b0702d52369002b20d12100d3
:102294002800fff75fff00281ad00120404270bddc
:1022a4001c4b9c4201d1ac68dfe71b4b9c42dcd148
:1022b400ec68dae7013b0136a360002b04daa2697b
:1022c400934216db0a2914d023685a1c2260197021
:1022d4003178a3680029edd1013ba360002b0fda0c
:1022e40022000a21280000f087f8431cd5d00a20d8
:1022f400d5e72200280000f07ff8431ce8d1cce7a2
:102304000a2023685a1c22601870c8e71c42000087
:0c231400ffdfffff3c420000fc41000026
:020000040000fa
:10232000f7b5150001938a680b6900900c00934281
:1023300000da130022002b6043321278002a01d009
:1023400001332b6023689b0602d52b6802332b6078
:10235000062723681f4027d0230043331b785a1ecb
:1023600093412268920630d42200019943320098aa
:10237000089eb047431c25d0062320682a68e168e0
:1023800003400025042b03d18d1aeb43db171d40be
:10239000a3682269934201dd9b1aed180027bd4214
:1023a00020d1002010e00137e3682a689b1a9f4281
:1023b000d2da22000123193201990098089eb04711
:1023c000431cf0d101204042febd3020e1184331d2
:1023d000087021005a1c45310978a2184332023393
:1023e0001170c1e7220001231a3201990098089e5a
:0a23f000b047431ce6d00137d1e7e7
:020000040000fa
:0223fa0070472a
:020000040000fa
:1023fc00f8b505000e001400002804d08369002bea
:10240c0001d100f0f1fe294b9c4233d16c68a369d9
:10241c00a360a3891b0737d52369002b34d00c2369
:10242c00e25e80239b01f7b2f6b21a4236d02368e3
:10243c002269981a6369984205db2100280000f094
:10244c00f7ff002826d1a3680130013ba360236865
:10245c005a1c22601f706369984204d0a389db0761
:10246c001ad50a2e18d12100280000f0e1ff00280f
:10247c0012d00fe00e4b9c4201d1ac68c7e70d4b5c
:10248c009c42c4d1ec68c2e721002800fff75efe35
:10249c000028c4d0012676423000f8bd1343a38136
:1024ac00226e054b13402366c1e7c0461c42000058
:0c24bc003c420000fc410000ffdfffff7d
:020000040000fa
:1024c80010b500280fd0002b0dd0006840780028e8
:1024d80019d101290fd0002909d002290fd0e220f3
:1024e800fff7a9fa02e0e220fff7a5fa10bd58228b
:1024f8001a600020fae740221a600020f6e720223e
:102508001a600020f2e7042809d0012921d0002907
:102518001bd0022921d0e220fff78dfae6e7012936
:102528000bd0002905d002290bd0e220fff783fa4f
:10253800dce758221a600020d8e700221a60002041
:10254800d4e720221a600020d0e780221a600020f9
:10255800cce740221a600020c8e7072a07d9082ad2
:1025680009d00f2a0cd848221a600020bee724227e
:102578001a600020bae79932ff321a600020b5e7e6
:08258800e220fff758fab1e769
:020000040000fa
:1025900070b52b4ca54466a801f0f0ffc4b2002c26
:1025a00009d0ff210140274801f084fb2000962339
:1025b0009b009d4470bd244b1a68c0231b029c469f
:1025c0006244002166a801f0deffc4b2002c06d0f0
:1025d000ff2101401b48343001f06cfbe6e71b494a
:1025e00066a801f0d5ffc4b2002c21d1184d4022bd
:1025f000ff218902280001f051ffc82676000196cc
:1026000001ab02aa2021114801f004ff02a90d48e4
:102610006c3001f04ffb019601ab02aa402128006b
:1026200001f0f8fe02a90b48143001f043fbbde7ae
:10263000ff2101400348343001f03cfbb6e7c046bf
:10264000a8fdffffc017000000fd030034000020bc
:082650005400002040180000b6
:020000040000fa
:10265800032370b5cd1c9d43083506000c2d1ed2f2
:102668000c25a9421dd8300001f0e9f9254a146863
:102678002100002919d1244c2368002b03d13000f4
:1026880001f03efd20602900300001f039fd431cb7
:102698002cd10c233000336001f03bfb03e0002d0c
:1026a800dfda0c233360002070bd0b685b1b1ad483
:1026b8000b2b03d90b60cc18256003e08c420ed19c
:1026c80063681360300001f024fb200007220b3000
:1026d800231d9043c31ae7d05a42e250e4e74b68ff
:1026e80063600c00eee70c004968c2e70323c41cd2
:1026f8009c43a042e0d0211a300001f001fd431ca8
:0c270800dad1c6e72003002024030020e3
:020000040000fa
:10271400f0b5b7b006000f0011001a003cab1b78ef
:102724003ea80578002e12d03d9800280fd0042d25
:102734003cd0202d10d10e2068440090380000f0c9
:10274400ddff041e0fd02000fff777f908e0e22038
:10275400fff773f9040003e0e220fff76ef90400c9
:10276400200037b0f0bd80231f4304ace7700e2374
:102774006b441b88a380300001f0f7fd210001f0b9
:102784001ffe041e0cd1310004a8fff765fa041ed5
:1027940009d12a00172169443d9801f07dfedfe745
:1027a400fff74bf9dce7fff748f9d9e70e20684457
:0e27b4000090380000f0a2ff041ed6d0c3e74c
:020000040000fa
:0227c200fee730
:020000040000fa
:1027c4001d4b00229a619a8c80218a439a841900b5
:1027d4001022cb681a42fcd0184b1b689b0e3f2b6f
:1027e40028d09b02164a12689205920d1343124a8e
:1027f400936211001022cb681a42fcd002220e4bc5
:102804009a8419001022cb681a42fcd00d4a0e4b50
:102814005a601a0053785bb2002bfbdb0a4b0b4a5d
:102824005a8001325a800a4a0a4b1a620022024b29
:102834001a6270471f23d4e7000800402460800018
:102844002860800000070100000c004016400000d2
:08285400300001000004004007
:020000040000fa
:10285c0070b50500002910d00c1f2368002b00da7e
:10286c00e418280001f0e9f81d4a1368002b05d183
:10287c0063601460280001f04afa70bda34209d9c4
:10288c00216860188342f3d118685b684118216095
:10289c00eee713005a68002a01d0a242f9d9196850
:1028ac005818a0420bd12068091858181960824298
:1028bc00e0d110685268411819605a60dae7a042fa
:1028cc0002d90c232b60d5e721686018824203d112
:1028dc00106852684118216062605c60cae7c046ab
:0428ec0020030020a5
:020000040000fa
:1028f000204a214b70b50021934203d21970013355
:102900009342fbd1002503261c4803684168002b35
:1029100018d100292dd083680c30002b18d000234b
:102920000022845c9c5401328a42fad333000b406b
:102930005a1e934189085918890040180368416854
:10294000002be6d082680c30002a07d10029dcd0a9
:1029500059181d7001338b42fbd1d6e70029dfd116
:1029600033000b405a1e93418908591889004018ba
:10297000e4e770bd9c00002000000020d0000000b3
:020000040000fa
:10298000002934d00123002210b488422cd3012422
:102990002407a14204d2814202d209011b01f8e7b7
:1029a000e400a14204d2814202d249005b00f8e770
:1029b000884201d3401a1a434c08a04202d3001b9c
:1029c0005c0822438c08a04202d3001b9c082243cf
:1029d000cc08a04202d3001bdc082243002803d00d
:1029e0001b0901d00909e3e7101c10bc704701b5b1
:1029f000002001f005fe02bd0029f8d003b5fff765
:0c2a0000c1ff0ebc4243891a1847c046b3
:020000040000fa
:102a0c0010b50400f020002c33d022000832211d18
:102a1c00206801f03bfcfff70cf8002829d1a368d3
:102a2c00002b18d01a68002a10d05b68002b0dd030
:102a3c00216820009047fef7fcff002819d1a368fd
:102a4c005b6820009847fef7f4ff02e0f620fef7e3
:102a5c00f0ff00280dd163681a68002a11d05b685a
:102a6c00002b0ed0216820009047fef7e2ff0028d3
:102a7c0000d010bd63685b6820009847fef7d9ff53
:0a2a8c00f7e7f620fef7d5fff3e7a9
:020000040000fa
:102a960030b5b3b0051e2ed0002b2cd06846c170c1
:102aa600828020221900063001f0f5fc369b002baf
:102ab60005d0402219002620684401f0ecfc2800cd
:102ac60001f052fc694601f088f8041e18d129006d
:102ad6006846fff7c0f8041e17d1379b002b11d0ac
:102ae6006b469b79222b0dd920226b46d91d379830
:102af60001f0d1fc06e0e220fef79eff040001e0b3
:102b0600fef79aff200033b030bdfef795fff9e7d8
:020000040000fa
:102b1600f0b5ce4600b582b006000d001400406840
:102b260040273f1a974200d91700083030183a005c
:102b3600290001f0b0fc7368e3183f2b04d87360da
:102b460002b004bc9146f0bd08239c46b4446346db
:102b56000122019361463000fef70ffbe41ba20938
:102b66009146e9193000fef708fb4a46531c9b01c3
:102b760032689446634433603f231a0022407260f1
:102b860021009943c9196918019801f084fcd7e717
:020000040000fa
:022b9600fee758
:020000040000fa
:102b9800f8b51e4b07001e68b369002b02d1300040
:102ba80000f024fb4836b4687368013b04d53368e9
:102bb800002b07d03668f6e70c22a55e002d0dd055
:102bc8006434f2e70421380001f048f93060002845
:102bd800f0d10c2304003b602000f8bd01235b42c8
:102be800e381200001232566a3812560a560656037
:102bf80025616561a56108222900583001f07efc35
:102c08006563a563a564e564e6e7c046044600007d
:020000040000fa
:102c1800f8b505000c0040682b68c7182f60ff0046
:102c280009235b421b1a3f261e40431c6b602b186e
:102c380080221a72321d09302818002101f05efc2a
:102c48006b689c466644ab193a0e1a733a0c5a7371
:102c58003a0a9a73320008326a60df7392092900cf
:102c680008312800fef788fa28008830a83503e0e4
:102c780004300434a84208d003230278e2540268de
:0c2c8800120a0260013bf8d2f2e7f8bd2e
:020000040000fa
:102c9400f0b585b001900e00140001f017fb012877
:102ca4001ad1731efe2b17d8050002ab1e71002724
:102cb400af4220d003abd95da368013ba360002bd6
:102cc40004daa269934219db0a2917d023685a1c33
:102cd400226019700137ebe723003200583303a94f
:102ce400019800f077fc0500431ce0d14023060066
:102cf400a2891343a381300005b0f0bd22000198de
:0c2d0400fff77afb431ce5d10600f4e762
:020000040000fa
:102d1000f7b502268b8905000c00334206d023004c
:102d200047332360236101236361f7bd01ab6a462a
:102d300000f004fc009907002800fff78dfc002834
:102d400006d10c22a35e9a05efd41e43a681e6e7c6
:102d50000d4bab628023a28920601343a381009bab
:102d600020616361019b002b0ad00e23e15e2800e5
:102d700001f000fa002803d00123a2891343a381a4
:0c2d8000a0893843a081d0e71545000071
:020000040000fa
:102d8c00f0b54a0245024600c30f48006d0a360ee4
:102d9c00520a000ec90fff2e01d1002d25d1ff289c
:102dac0001d1002a21d10024a64202d16c426c41ef
:102dbc00e4b2002801d1002a1ad0002c05d18b4294
:102dcc0001d1864205dd5b4206e001200139084352
:102ddc00f0bd864203da013b01201843f8e7954227
:102dec00f1d820009542f6d3f2e702204042efe7fb
:102dfc001000002cecd1e6e7f0b54a024f0045027a
:102e0c0046006d0a360ec30f520a3f0ec90fff2e35
:102e1c0002d10220002d19d1ff2f02d10220002a4d
:102e2c0014d10024a64202d16c426c41e4b2002fb2
:102e3c0001d1002a17d0002c05d18b4201d1be4202
:102e4c0005dd5b4206e0012001390843f0bdbe42be
:102e5c0003da013b01201843f8e79542f1d8200032
:0e2e6c009542f6d3f2e71000002cefd1e9e713
:020000040000fa
:022e7a00fee771
:020000040000fa
:102e7c0070b50300041e08d000f01efe9e231b1a22
:102e8c00962b08dc9622d21a9440d8b26402640abb
:102e9c00c005204370bd992b0addb9222100d21a3e
:102eac0091400a00511e8a410521091acc40144355
:102ebc0099212200c91a002900dd8a401400084912
:102ecc000c40550704d00f252a40042a00d00434a6
:102edc00620102d59f230c401b1ae408d5e7c046bb
:102eec00fffffffb8446081c6146ffe71fb5fff799
:102efc0083ff002801d40021c8421fbd10b500f08b
:102f0c00b0fb4042013010bd10b5fff775ff002833
:102f1c0001db002010bd012010bdc04610b5fff72d
:102f2c006bff002801dd002010bd012010bdc04644
:102f3c0010b5fff725ff002801dc002010bd012093
:102f4c0010bdc04610b5fff71bff002801da0020aa
:082f5c0010bd012010bdc046ac
:020000040000fa
:102f6400f0b583b005000c0000282ad00368002bbc
:102f740001d001f043fa1449144b0a00c1cbc1c279
:102f84001b681360200001f0bdf9002804d10e4b2a
:102f94002b606378032b01d003b0f0bd0a480123f2
:102fa4000193030011330093132300220021fef741
:102fb400affc0028f0d12a68537c07218b4353745b
:102fc400eae70020e8e7c0460000002024000020d3
:020000040000fa
:102fd400f0b583b0019114001f0001f0a8fa051e9a
:102fe40016d0002f14d0002c12d0c66a002e14d094
:102ff4003a88019b5808210033689847f024002838
:1030040010d12000fef719fd0400200003b0f0bd2c
:10301400e220fef712fd0400f7e7e220fef70dfdc3
:103024000400f2e73a88a968300000f0adfa041e03
:0e303400e7d1f36898470028e7d0f024e1e7e1
:020000040000fa
:023042007047d5
:020000040000fa
:10304400f0b5d6464f464646c0b59446002821d032
:103054008946884680440023134816e06d00edb28b
:10306400013e002e0cd0df0b5b009bb22c000c4009
:10307400621e9441e4b2bc42f0d043409bb2ede7ff
:1030840001229246d144c14505d04a46117808260a
:103094000125e8e70023624613701b0a53701cbc29
:0c30a40090469946a246f0bd0580ffff53
:020000040000fa
:1030b000f0b583b00600019117001d00002a01d071
:1030c000002b06d1e220fef7bafc0400200003b07a
:1030d000f0bd00f0f5ff002818d1002300220421e4
:1030e000300000f0dbff0400f52801d0002806d1f5
:1030f0002b003a000199300000f0f6fd0400002397
:1031000000220521300000f0c9ffdfe76b1e3a0006
:0c311000ff21300000f0e8fd0400d7e7cc
:020000040000fa
:10311c0070b5b2b005000e0000281dd000236a4621
:10312c00d370938001f01df9694601f03bf9041e40
:10313c0017d129006846fef78bfd041e16d16b468d
:10314c009b79232b15d1002e0dd020226b46d91d37
:10315c00300001f09df906e0e220fef76afc040065
:10316c0001e0fef766fc200032b070bdfef761fc9a
:0c317c00f9e7e620fef75dfc0400f4e734
:020000040000fa
:1031880010b5174b1a78042a0cd89300154ad3584f
:103198009f46154801f0a2f90123002800d0052315
:1031a8000f4a137010bdfff7eff90223002800d073
:1031b80005230b4a1370f5e700f00afb4342584118
:1031c8000330074b1870ede700f026fb431e9841cb
:1031d8000430034b1870e5e700f02afee2e7c0462a
:0c31e80094000020284400006802002031
:020000040000fa
:1031f400836913b50400002b28d18364c364036579
:10320400134b144a1b6882620193984201d1012333
:1032140083612000fff7befc60602000fff7bafc6a
:10322400a0602000fff7b6fc0022e0600421606883
:1032340000f060fb01220921a06800f05bfb022280
:103244001221e06800f056fb0123a36113bdc046c0
:083254000446000015450000ce
:020000040000fa
:10325c0002780023042a01d0180070474278072a0c
:10326c0021d0d3b2072b0bd8012a1ad0002a1ed09a
:10327c00d223032af0d0d623052aedd0e123ebe7a5
:10328c000f2a12d0d3b20f2b07d9f323112ae3d074
:10329c00d2b2d423ff2adfd0f0e7fa23082adbd0fe
:1032ac00ece7d123d8e7d723d6e7f423d4e70023e0
:0232bc00d2e757
:020000040000fa
:1032be00f0b583b00d000192009301f033f9061eb4
:1032ce0023d0c76ae224002f20d01e228168380046
:1032de0000f055f9041e19d16808009a01997b680f
:1032ee009847f024002811d06b461a88b168380030
:1032fe0000f045f9041e09d1fb689847002805d057
:10330e00f020fef795fb040000e0e224200003b05d
:02331e00f0bd00
:020000040000fa
:1033200010b50400a822002101f0ecf80c4a882313
:10333000e2500c4a8c23e2500b4a9023e2500b4a95
:103340009423e2500a4a9823e2500a4a9c23e2500e
:10335000094aa023e250094aa423e25010bdc04606
:1033600067e6096a85ae67bb72f36e3c3af54fa516
:103370007f520e518c68059babd9831f19cde05b42
:020000040000fa
:103380000122144b1a601a00d369002bfcd1802251
:103390005200104b5a601a00d369002bfcd10d4b20
:1033a000e822da600c4a1a601a00d369002bfcd1bb
:1033b0001022084b5a831a00d369002bfcd1074b0b
:1033c000002221215a5420215a548322014b9a75fc
:1033d0007047c046001000421600100098020020fe
:020000040000fa
:1033e00070b504000d00002823d000f00ffd002d63
:1033f00019d020000024104a0421072605e0138d6f
:10340000038002300134a5420ed0137e0b42fcd063
:10341000538b334208d153683340012befd0138dc7
:1034200003700130eee700242c1b60426041c0b203
:0c34300070bd0020fce7c0460014004204
:020000040000fa
:10343c000b6970b505000c00002b01d1002070bd8c
:10344c00002804d08369002b01d1fff7cdfe0b4b74
:10345c009c4209d16c680c22a35e002beed021009b
:10346c002800fef7e7faeae7054b9c4201d1ac686d
:10347c00f1e7044b9c42eed1ec68ece71c420000f7
:08348c003c420000fc4100007d
:020000040000fa
:1034940070b582b005000e00114c0422210001a871
:1034a40000f0faff211d0422684600f0f5ffd02049
:1034b400042e01d002b070bd042201a9280000f03e
:1034c400cbfe03000020002bf4d004226946280020
:1034d40000f0c2fe0300d720002bebd0d020e9e798
:0434e4009c45000003
:020000040000fa
:1034e80010b5114b00229a61da61104b83221a76cb
:1034f8005a680f4c22405a601a00d369002bfcd13d
:1035080000290cd003242023074ad4544000084340
:10351800064b58621a00d369002bfcd110bd042455
:103528002023014ad454f1e79802002000100042f9
:04353800fffffbff97
:020000040000fa
:10353c0070b50e001d000e23c95e90b0140000295a
:10354c0007da00232b60b3891b0611d48023db0020
:10355c000fe001aa00f0f6fd0028f2dbf022029b3e
:10356c0012021340054a9b185a4253412b60ede757
:10357c0040230020236010b070bdc04600e0ffff68
:020000040000fa
:10358c0070b506000800023292b20f4c5443fa2177
:10359c008900fff7eff901002000fff7ebf9441c5d
:1035ac0003e0012000f08fff2c00b368984700283f
:1035bc0003d0651e002cf4d12c00002c01d1f0207e
:0c35cc0070bd0020fce7c0462823000072
:020000040000fa
:1035d8007fb51d000f4b04001b681b6a002911d121
:1035e800002b00d10c4be0331e6800222b0001a9f0
:1035f8002000b047431c03d100232b608a2323609b
:1036080004b070bd002b00d1034be0331e682b00c3
:0c361800eee7c0461c0300209c000020d0
:020000040000fa
:1036240030b583b0040000f049fd002818d12368a8
:103634001b78012b14d0200000f097fe030000201b
:10364400052b10d06b46dd1d02232b70200000f0eb
:10365400c3fd010001232a00200000f043fb02e027
:0a366400200000f071fb03b030bd40
:020000040000fa
:10366e0070b5430242004e024d00c40f5b0a120eab
:10367e00760a2d0ec90f0120ff2a06d1002b13d179
:10368e00ff2d11d1002e0fd105e0ff2d0cd0aa4237
:10369e000ad1b34208d100208c4205d00120002a65
:1036ae0002d11800431e984170bd10b5064c237808
:1036be00002b07d1054b002b02d0044800e000bfc1
:1036ce000123237010bdc402002000000000000082
:1036de000000044b10b5002b03d00349044800e052
:1036ee0000bf10bdc04600000000c8020020000050
:0236fe000000ca
:020000040000fa
:1037000070b5049c03252840002c0cd0002803d061
:10371000022810d001280ad1d200072003401a4302
:103720002280002070bde220fef789f9fae7e2204e
:10373000fef785f9f6e7c900072003400b431202a4
:083740001a4322800020ede78e
:020000040000fa
:1037480010b506220e4b5a600e4c236858680021ab
:1037580000f0a9fe23689868002100f0a4fe00f09c
:10376800fdfbfff72bf800f0fff900f0e5fefff78f
:1037780003fefef73efe00f0e5fe00f0dbfb10bda9
:08378800004000411c03002079
:020000040000fa
:1037900010b50a4b98470a4b9847fff7a9f8094a12
:1037a000ff21094b8b439360084b9847084b984780
:1037b000084b984700f0b6fefee7c04643300000d5
:1037c0004330000000ed00e0000000006938000018
:0837d00043300000433000000b
:020000040000fa
:1037d80010b58ab0202102a800f04efa0a4b1868ea
:1037e80000230193094b0093094b00220621fff7a0
:1037f8004ef9041e02d020000ab010bd054844301e
:1038080000f022fef7e7c04618030020540000200d
:083818003400002040180000fc
:020000040000fa
:1038200010b58ab0202102a800f02afa0a4b1868c5
:1038300000230193094b0093094b00220721fff756
:103840002af9041e00d101240648083000f032fa9b
:1038500020000ab010bdc04618030020540000200c
:0838600034000020c018000034
:020000040000fa
:1038680070b500260c4d0d4c641ba410a64209d15e
:103878000026fcf719fc0a4d0a4c641ba410a6424a
:1038880005d170bdb300eb5898470136eee7b30099
:10389800eb5898470136f2e7bc000000bc00000076
:0838a800bc000000c00000009c
:020000040000fa
:1038b000f8b50d00096e06001400d718890418d554
:1038c0009f08bf00d719bc4201d1002008e02a00a0
:1038d00002cc300000f0d1fc431cf4d10120404266
:1038e000f8bd21782a00300000f0fefa0134431cb4
:0838f000f4d0bc42f5d1e8e779
:020000040000fa
:1038f800002310b504000360436083608181036680
:10390800c28103614361836119000822583000f0c5
:10391800f5fd054b24626362044ba362044be3622a
:10392800044b236310bdc046b53f0000a93b00000f
:08393800913e0000594500001a
:020000040000fa
:1039400030b5002818d0002918d00d4a01240725c9
:1039500004e003881385023000290bd00139137e5f
:103960002342fcd053682b40012bf2d003781385ff
:103970000130f1e7012030bd0020fce70120fae72b
:0439800000140042ed
:020000040000fa
:10398400f7b504000700002601914834002c01d14a
:103994003000febd6368a5680093009b013b009363
:1039a40001d52468f2e7ab89012b08d90e22ab5e5e
:1039b400013304d029003800019b9847064364353d
:0239c400ebe72f
:020000040000fa
:1039c60070b50500fef7c4fb041e17d0e22023687d
:1039d600002b14d0200000f070fb00280ad12368c9
:1039e6001b78012b06d00020002b08d12800fef7fb
:1039f600b6fa04e0200000f003f800e0e22070bd13
:020000040000fa
:103a060070b5041e18d04368002b17d01d69fd2021
:103a1600002d12d00023002200212000a847d02824
:103a26000bd1192000f0dffc63681d69002300221a
:103a360000212000a84700e0e22070bdfd20fce741
:020000040000fa
:023a46007047c7
:020000040000fa
:103a480070b50c000025002904d0002a02d015000a
:103a5800022801d9280070bd084b002b04d01100a2
:103a6800200000e000bff5e716002078013e00f0d6
:103a780061fc0134002ef8d1ece7c04600000000dc
:020000040000fa
:103a880041024300c20f490a1b0e00207e2b03ddb2
:103a98009d2b02dd084bd018704780200004084396
:103aa800952b05dd963b9840002af5d04042f3e778
:103ab8009621cb1ad840f7e7ffffff7f1c2101238f
:103ac8001b04984201d3000c10391b0a984201d3f9
:103ad800000a08391b09984201d30009043902a2d7
:103ae800105c40187047c04604030202010101013e
:083af8000000000000000000c6
:020000040000fa
:103b000070b582b00e0000f014fd002810d0c56a18
:103b1000e224002d0dd0019681681e222800fff7b7
:103b200035fd041e05d12b69002101a8984700e04e
:083b3000e224200002b070bd88
:020000040000fa
:103b380010b520230b4ce45c0023002c01d01800a6
:103b480010bd084b9880d9605a6100229a601a61aa
:103b5800012199701a7021215a540121fff7c0fce4
:083b68000123ece798020020a4
:020000040000fa
:103b70000a4b0b4a1a600b4a9a81c02292025a6081
:103b80001a00d369002bfcd1044a136802210b43ad
:103b90001360d369002bfcd17047c046001400426b
:083ba000040110402bf6ffffa9
:020000040000fa
:103ba800f8b51f008b8905000c001600db0505d54c
:103bb8000e23c95e0022022300f020faa389054ad9
:103bc80028001340a38132000e23e15e3b0000f081
:083bd80001faf8bdffefffff49
:020000040000fa
:103be00010b580238b7007234b70ca781340062bc7
:103bf0000ed0072b05d0052b03d0e220fdf71fffc9
:103c000005e067234b70080000f036fc002010bd73
:063c100027234b70f7e7cb
:020000040000fa
:103c160070b582b005000478023ce4b201ae320011
:103c260001002000fff70bfa32782b5de5209a425f
:103c360001d002b070bd2c1901ab5a7863789a4254
:063c4600f7d10020f5e7b4
:020000040000fa
:103c4c0010b520230a4ce45c0023002c01d0180092
:103c5c0010bd074b9880dc605c6199601a619c70a8
:103c6c001c7021229c540021fff738fc0123eee745
:043c7c00980200208a
:020000040000fa
:103c800030b589b004000d00094b18686946fff78c
:103c900045fa002803d1002c01d0202d01d909b00c
:103ca00030bd2a006946200000f0f8fbf7e7c04667
:043cb00018030020d5
:020000040000fa
:103cb4000fb40b4b13b51c68002c05d0a369002b63
:103cc40002d12000fff794fa05ab049aa168200002
:103cd4000193fcf781ff16bc08bc04b01847c0462a
:043ce4001c0300209d
:020000040000fa
:103ce80070b500280fd04468002c0ed0a468002cb2
:103cf8000dd005682e78002e01d1ff2901d0a047ec
:103d080070bd2979fbe7e220fae7fd20f8e7fd20fe
:023d1800f6e7cc
:020000040000fa
:023d1a007047f0
:020000040000fa
:103d1c00002907d0002a07d0084b1b78834205d016
:103d2c00e1207047e220fce7e220fae7034b5868f9
:103d3c0008609b6813600020f3e7c0460c0300206a
:020000040000fa
:103d4c0070b5002810d04368002b0fd01d69fd24de
:103d5c00002d07d0002300220121a84704000120d8
:103d6c0000f03efb200070bde224fbe7fd24f9e7e8
:020000040000fa
:103d7c0010b5041e12d00368e220002b0fd0187867
:103d8c00e16800f061f9002801d10023e3602368a9
:103d9c001b78062b03d10023636000e0e22010bdea
:020000040000fa
:103dac00084a1368002b09d007491818884202d812
:103dbc0010601800704701204042fbe7034b136072
:103dcc00f2e7c04628030020300500203003002015
:020000040000fa
:103ddc009e2110b5c905041cfff7b4f800280ad0c1
:103dec009e21201cc905fcf7edfafff747fe802346
:0e3dfc001b06c01810bd201cfff740fefae7a2
:020000040000fa
:103e0c00094b5b8b5b070dd0074b80221a76072280
:103e1c005a831b7e5b0705d5034b04211a8d1a7e32
:0c3e2c000a42fbd17047c046001400425f
:020000040000fa
:103e380010b5074b1c680748343000f005fbc02359
:103e48001b021a6882f30888034a9360204710bd52
:0c3e580004c00000c018000000ed00e0f5
:020000040000fa
:103e640070b564254a1e55430e0029007031fef7d3
:103e7400f1fb041e08d000212a00016046600c30ca
:0c3e8400a060643200f03cfb200070bd28
:020000040000fa
:103e900070b50c000e25495f00f0b4f8a389421cf0
:103ea00003d1054a1340a38170bd80225201134300
:0c3eb000a3816065f8e7c046ffefffff4c
:020000040000fa
:103ebc0070b5002600290ed0002a0cd01600002860
:103ecc0009d10c001500012000f025fa013d2070ed
:0c3edc000134002df7d1300070bdc0464d
:020000040000fa
:103ee800936810b5013b9360002b05da9469a342ef
:103ef80008dbcbb20a2b05d01368581c1060197068
:0a3f0800c8b210bdfef776fafbe721
:020000040000fa
:103f120010b500280cd00368002b0bd0f52306291e
:103f220001d0180010bd1168fff7e9fd0300f8e7a2
:083f3200e223f6e7e223f4e7c5
:020000040000fa
:103f3c00bff35f8f62b6074ac220800013581b0282
:103f4c001b0ac02109060b43135080231b0113606d
:083f5c007047c04600e100e0df
:020000040000fa
:103f6400084b012248215a5449215a5456215a5483
:103f740057215a5433213422995422213b229954f3
:083f84007047c04600440041f3
:020000040000fa
:103f8c002023074ad35c0120002b07d1054b588b0b
:103f9c00302318401038431e9841c0b27047c046b9
:083fac00980200200010004201
:020000040000fa
:103fb40070b50c000e25495f00f036f8002803dbcd
:103fc400636d1b18636570bda389024a1340a38106
:083fd400f9e7c046ffefffff13
:020000040000fa
:103fdc0070b50500080011000022064c22601a0082
:103fec0000f0f2fa431c03d12368002b00d02b60a5
:083ffc0070bdc04698000020d2
:020000040000fa
:1040040070b50500080011000022064c22601a0059
:1040140000f0d6fa431c03d12368002b00d02b6098
:0840240070bdc04698000020a9
:020000040000fa
:10402c0070b50500080011000022064c22601a0031
:10403c0000f0c6fa431c03d12368002b00d02b6080
:08404c0070bdc0469800002081
:020000040000fa
:1040540010b582b00c006a4601a9fff75dfe002886
:1040640006d1019b5b69e220002b01d02000984718
:0440740002b010bdc9
:020000040000fa
:1040780070b500280ad04468002c09d0e568fd24f2
:10408800002d01d0a8470400200070bde224fbe702
:04409800fd24f9e723
:020000040000fa
:10409c0070b500280ad04468002c09d02569fd248d
:1040ac00002d01d0a8470400200070bde224fbe7de
:0440bc00fd24f9e7ff
:020000040000fa
:1040c00000280bd00368002b0ad01b78043bdbb21e
:1040d000002001229a424041c0b270470020fce714
:0440e0000020fae7db
:020000040000fa
:1040e40082b0002900d101a9101e06d0002b06d0f1
:1040f40013780b601078431e984102b07047022079
:044104004042fae754
:020000040000fa
:10410800002370b5064c050008002360fff74afe3f
:10411800431c03d12368002b00d02b6070bdc04620
:0441280098000020db
:020000040000fa
:10412c00002370b5064c05000800236000f038fa37
:10413c00431c03d12368002b00d02b6070bdc046fc
:04414c0098000020b7
:020000040000fa
:10415000002370b5064c050008001100236000f034
:1041600029fa431c03d12368002b00d02b6070bdbb
:044170009800002093
:020000040000fa
:10417400002370b5064c05000800236000f01cfa0b
:10418400431c03d12368002b00d02b6070bdc046b4
:04419400980000206f
:020000040000fa
:1041980010b500280bd0e223002906d008600800db
:1041a800fef730fcfdf747fc0300180010bde223c2
:0241b800fbe723
:020000040000fa
:1041ba003031323334353637383941424344454653
:1041ca0000303132333435363738396162636465e9
:0241da0066007d
:020000040000fa
:1041dc00002809d00368002b08d01a78ff20002a89
:1041ec0000d070471879fce7ff20fae7ff20f8e7ca
:020000040000fa
:1041fc0000000000000000000000000000000000b3
:10420c0000000000000000000000000000000000a2
:020000040000fa
:10421c000000000000000000000000000000000092
:10422c000000000000000000000000000000000082
:020000040000fa
:10423c000000000000000000000000000000000072
:10424c000000000000000000000000000000000062
:020000040000fa
:10425c0030b50024a24201d1002005e0035d651cad
:0e426c000c5da34201d0181b30bd2c00f2e700
:020000040000fa
:10427a0010b50c23d45e80239b011c4204d11c433d
:0e428a009481146e23431366fef7fffc10bdf3
:020000040000fa
:1042980010b5002808d0e223002903d00078fff7e2
:0c42a80039fd0300180010bde223fbe705
:020000040000fa
:1042b400002804d00368002b03d0988c7047024870
:0c42c400fce70148fae7c046dc050000fa
:020000040000fa
:1042d000044b1b681b6a002b00d1034b9422520035
:0c42e000985c70471c0300209c0000202c
:020000040000fa
:1042ec00044b1b681b6a002b00d1034bec33186882
:0c42fc007047c0461c0300209c000020fe
:020000040000fa
:1043080010b5002807d0e223002902d0fff740ffac
:0a4318000300180010bde223fbe7cc
:020000040000fa
:1043220000b583b000230193012101a8fff757f8dc
:0a4332000028f9d0019803b000bd87
:020000040000fa
:10433c0000b583b06b46d87101216b46d81dfff7d1
:0a434c00f9fa0028f8d003b000bd14
:020000040000fa
:104356000b1e04d0ff2a04d98a2303608b3b180066
:0843660070470a700123fae719
:020000040000fa
:10436e00002804d00368002b03d058787047202013
:06437e00fce72020fae735
:020000040000fa
:10438400002804d00368002b03d0986a70470020eb
:06439400fce70020fae73f
:020000040000fa
:10439a00c9b28218904201d10020704703788b423b
:0643aa00fbd00130f6e734
:020000040000fa
:1043b00010b51b238b7007234b70080000f05cf8ce
:0443c000002010bd0c
:020000040000fa
:1043c40010b502238b7007234b70080000f052f8dd
:0443d400002010bdf8
:020000040000fa
:1043d80010b50301181a400101380a21fef7ccfa7a
:0443e800013010bdd3
:020000040000fa
:1043ec0010b503494143002000f0f6f810bdc0465b
:0443fc0080bb000082
:020000040000fa
:1044000010b50400006800f040f8002801d1002336
:04441000236010bd58
:020000040000fa
:1044140010b584b00124029401940094fdf754f87b
:0444240004b010bd13
:020000040000fa
:104428009a310000ae310000c0310000d0310000e8
:04443800e03100006f
:020000040000fa
:10443c0002b4714649084900095c49008e4402bc2b
:04444c007047c046af
:020000040000fa
:1044500010b5034b01001868fdf7f4fe10bdc0460f
:044460001c03002019
:020000040000fa
:1044640010b5034b01001868fef7f4f810bdc04600
:044474001c03002005
:020000040000fa
:1044780010b5411c40780238c0b20a18fef7defdbc
:0244880010bd65
:020000040000fa
:10448a0010b5e223002802d0fff773fc03001800de
:02449a0010bd53
:020000040000fa
:10449c00002310b59a4200d110bdcc5cc45401333a
:0244ac00f8e72f
:020000040000fa
:1044ae004a424a41802310b55200db00fdf7d5f891
:0244be0010bd2f
:020000040000fa
:1044c000232d302b2000686c4c00656667454647fd
:0144d00000eb
:020000040000fa
:1044d20010b5fff780ff0100002000f082f810bd48
:020000040000fa
:1044e40010b501000148fef73bfd10bd1803002084
:020000040000fa
:1044f4002123024ad05cc0b27047c0469802002013
:020000040000fa
:1045040003008218934200d1704719700133f9e710
:020000040000fa
:1045140010b50249fff734fa10bdc0463d3400001f
:020000040000fa
:0e45240010b50020fff70ef900f03af8fce7a2
:020000040000fa
:0c453200002801d0006870470020fce762
:020000040000fa
:0c4540008222014b5a607047004000418d
:020000040000fa
:0c454c000022014b1a7070479400002000
:020000040000fa
:0c45580010b50e23c95efff7e5fd10bd95
:020000040000fa
:0c45640080239b0100204b607047c04684
:020000040000fa
:0b4570004300504f53495800002e003c
:020000040000fa
:0a457c0010b5fef7cffe002010bdc1
:020000040000fa
:0a45860010b5fef7c5fa002010bdc5
:020000040000fa
:0a45900010b5fef741fb002010bd3e
:020000040000fa
:08459c00041133430407c4407d
:020000040000fa
:0845a40010b5fef7effd10bd9c
:020000040000fa
:0845ac0010b500f015f810bd78
:020000040000fa
:0845b40010b5fff7d5ff10bda3
:020000040000fa
:0845bc0010b500f023f810bd5a
:020000040000fa
:0845c40010b500f021f810bd54
:020000040000fa
:0845cc0010b5fff775fc10bdee
:020000040000fa
:0845d40010b5fff737fa10bd26
:020000040000fa
:0845dc00012040427047c04677
:020000040000fa
:0645e4000139fdd870470b
:020000040000fa
:0645ea0001204042704771
:020000040000fa
:0445f00000207047f0
:020000040000fa
:0445f40000207047ec
:020000040000fa
:0445f80000207047e8
:020000040000fa
:0445fc000d0a0000a4
:020000040000fa
:044600007047c046f9
:020000040000fa
:044604000802002088
:020000040000fa
:0446080001207047d6
:020000040000fa
:04460c0000207047d3
:020000040000fa
:0200000400807a
:0440000077c700d8a6
:020000040000fa
:0200000400807a
:044004005c00ffff5e
:00000001FF
