:020000040000fa
:10c00000f07f0020f5fc000047f000009ff30000e7
:10c010000000000000000000000000000000000020
:10c0200000000000000000000000000033e70000f6
:10c03000000000000000000033e7000033e70000cc
:10c0400033e7000033e7000033e7000033e7000088
:10c0500033e7000033e7000033e7000033e7000078
:10c0600033e7000033e7000033e7000011d500009c
:10c0700033e70000000000000000000033e700008c
:10c0800033e7000033e7000033e7000033e7000048
:10c0900033e70000000000000000000033e700006c
:10c0a00033e7000033e7000033e7000033e7000028
:020000040000fa
:10c0b000f8b5c046f8bc08bc9e46704745fc000079
:10c0c000f8b5c046f8bc08bc9e4670471dfc000091
:020000040000fa
:10c0d0008c0400201c000000000000001004002060
:10c0e0003000000001000000000300006c000000b0
:10c0f000a086010000000000000000000000000019
:10c10000000000000000000000000000dc0500004e
:10c1100014000000c0040020d40400200c00000023
:10c120000100000000000000a80400200000000042
:10c13000a80400201800000001000000c10a01004e
:10c14000c50a010077f70000f9f40000e3030100dd
:10c15000c90a0100c0040020140000000100000012
:10c1600049000100290101005d040100e509010009
:10c170008dde0000e004002004000000000000004c
:10c1800000000020340000000000000040040020f7
:10c190002c000000000000006c04002020000000c3
:10c1a00001000000cb1adbc1e066a1ba5ea9264ef1
:10c1b000e731efdb8ea0c1e3c0dd9101f1f5314441
:10c1c0002874934a340000200c0200000000000094
:10c1d000e40400200400000001000000b00300207f
:10c1e000b00300206000000001000000000000001b
:10c1f0000c0701002c070100ec0601000000000004
:10c20000000000000000000000000000000000002e
:10c21000000000000000000000000000000000001e
:10c22000000000000000000000000000000000000e
:10c2300000000000000000000000000000000000fe
:10c240000000000000000000000000004402002088
:10c250006c0100000100000043000000000000002d
:10c2600000000000000000000000000000000000ce
:10c27000000000000000000043000000000000007b
:10c2800000000000000000000000000000000000ae
:10c29000000000000000000043000000000000005b
:10c2a000000000000000000000000000000000008e
:10c2b000000000000000000043000000000000003b
:10c2c000000000000000000000000000000000006e
:10c2d000000000000000000043000000000000001b
:10c2e000000000000000000000000000000000004e
:10c2f00000000000000000004300000000000000fb
:10c30000000000000000000000000000000000002d
:10c3100000000000000000004300000000000000da
:10c32000000000000000000000000000000000000d
:10c33000000000000000000047080100b5050100f2
:10c340000000000098e00000690a0100680a01008e
:10c35000680a0100680a0100680a0100680a010011
:10c36000680a0100680a0100680a0100680a010001
:10c37000ffffffffffffffffffffffffffff0000cb
:10c380000100415343494900000000000000000043
:10c39000000000000000000000000000000000009d
:10c3a0000000415343494900000000000000000024
:10c3b000000000000000000000000000000000007d
:10c3c00000000000e804002004000000000000005d
:10c3d000ec040020040000000000000040020020e7
:10c3e0000400000000000000f00400200400000031
:10c3f00000000000000000000000000022222222b5
:020000040000fa
:10c40000f7b543024a025b0a520a4e004400019308
:10c4100000939446240ec50fdb00360ec90fd200e0
:10c42000ff2e01d1002a01d101204140a01ba942c9
:10c4300000d0a1e000282edd002e18d1002a00d166
:10c440004ae1411e00290ed101249b185a015bd5f7
:10c450000134ff2c00d13de10122a4491a405b08c0
:10c460000b40134350e0ff2807d1ff244ce0ff2c82
:10c470004ad08021c9040a4301001b2901dd0122a1
:10c4800007e010002026c840711a8a40511e8a41d8
:10c4900002439b18dae7002821d0002c0cd1002b96
:10c4a00007d0c043002802d19b183400cee7ff2eee
:10c4b00008d11300340027e0ff2efad08021c904f0
:10c4c00040420b431b2801dd0123ede71900202426
:10c4d000c140201a8340581e83410b43e4e7611c8e
:10c4e000ff260f003740012f3fdc002c2bd1002b03
:10c4f00000d1eae0002a07d09b188022d204134220
:10c5000002d001247a4a13405a0704d00f221a405d
:10c51000042a00d004335a0105d50134ff2c00d180
:10c52000e1e0734a1340db08ff2c04d1002b02d05a
:10c530008022d20313435b02e4b2e405580aed07fc
:10c5400020432843febd002b00d1c0e03400002a68
:10c55000dad08023019adb031a4203d062461a42e2
:10c5600000d10092009bdb007fe7ff2900d1b0e003
:10c570009b185b080c00c7e7002826dd002e13d1ae
:10c58000002a00d1a8e0411e002906d101249b1aef
:10c590005a01b9d59b019e097ae0ff2800d164e7d2
:10c5a0001b2908dd01220ee0ff2cadd08021c9043b
:10c5b0000a430100f4e710002026c840711a8a409f
:10c5c000511e8a4102439b1ae2e7002822d0002c28
:10c5d0000dd1002b08d0c043002803d1d31a34005a
:10c5e0000d00d5e7ff2e08d11300340020e0ff2e08
:10c5f000fad08024e404404223431b2801dd0123b8
:10c60000ece71c002025c440281a8340581e8341b3
:10c610002343e3e7ff20661c0640012e31dc002c9b
:10c6200017d1002b06d11d00002a00d16ce71300a2
:10c630000d0069e7002a00d166e78026981af60403
:10c64000304201d0d31af3e7031e00d05ce71d008f
:10c650005ae7002b04d1002a40d013000d0004e754
:10c660000400002a00d14fe78023019adb031a421d
:10c6700000d177e762461a4200d073e700920d00be
:10c6800070e780209e1ac004064215d00d00d61a0d
:10c69000300003f081fc330005388340844210dc15
:10c6a000041b1a0020200134e240041ba3405e1e3c
:10c6b000b3410024134327e7002ee9d133003400af
:10c6c000c5e7241a0a4803401ee713001ce71300bd
:10c6d000cbe60c00002317e7040015e780230400d5
:10c6e0009b04150010e700231de7c046ffffff7df8
:10c6f000fffffffbf7b54602730a802644004a029b
:10c700004f00520a240e3f0ef6040093c50f01920b
:10c71000db00c90fd200e01bb4468d4200d0a0e080
:10c7200000282edd002f18d1002a00d146e1411e3d
:10c7300000290ed101249b185a015ad50134ff2c2f
:10c7400000d139e10122a2491a405b080b40134392
:10c750004fe0ff2807d1ff244be0ff2c49d03100e8
:10c7600011430a0001001b2901dd012207e010002e
:10c770002026c840711a8a40511e8a4102439b18e4
:10c78000dae7002821d0002c0cd1002b07d0c043c1
:10c79000002802d19b183c00cee7ff2f08d11300e0
:10c7a0003c0026e0ff2ffad0310019430b00404235
:10c7b0001b2801dd0123ede719002024c140201ac8
:10c7c0008340581e83410b43e4e7611cff270e00a2
:10c7d0003e40012e3edc002c2ad1002b00d1e6e0a9
:10c7e000002a06d09b186246134202d00124794adf
:10c7f00013405a0704d00f221a40042a00d00433f1
:10c800005a0105d50134ff2c00d1dee0714a1340f6
:10c81000db08ff2c04d1002b02d08022d20313436b
:10c820005b02e4b2e405580aed0720432843febd4d
:10c83000002b00d1bde03c00002adad08023009a12
:10c84000db031a4203d0019a1a4200d10092009be6
:10c85000db0080e7ff2900d1ade09b185b080c00ee
:10c86000c7e7002826dd002f13d1002a00d1a5e05c
:10c87000411e002906d101249b1a5a01b9d59b01fa
:10c880009e0977e0ff2800d165e71b2908dd01221a
:10c890000ee0ff2cadd0310011430a000100f4e797
:10c8a00010002026c840711a8a40511e8a41024356
:10c8b0009b1ae2e7002822d0002c0dd1002b08d0d3
:10c8c000c043002803d1d31a3c000d00d5e7ff2f49
:10c8d00008d113003c0020e0ff2ffad034001c43a5
:10c8e000230040421b2801dd0123ece71c0020252a
:10c8f000c440281a8340581e83412343e3e7ff20a6
:10c90000671c0740012f2fdc002c15d1002b06d10e
:10c910001d00002a00d16ce713000d0069e7002a12
:10c9200000d166e7981a304201d0d31af5e7031e0a
:10c9300000d05ee71d005ce7002b04d1002a3fd049
:10c9400013000d0007e70400002a00d151e78023ff
:10c95000009adb031a4200d179e7019a1a4200d00b
:10c9600075e700920d0072e760469e1a064215d0e8
:10c970000d00d61a300003f00ffb3300053883405a
:10c98000844210dc041b1a0020200134e240041b06
:10c99000a3405e1eb341002413432ae7002ee9d1d1
:10c9a00033003400c6e7241a0a48034021e7130085
:10c9b0001fe71300cfe60c0000231ae7040018e776
:10c9c000802304009b04150013e7002320e7c046e2
:08c9d000ffffff7dfffffffbed
:020000040000fa
:10c9d800f0b58bb006920a00433207930590049293
:10c9e8000a7e0c00109b6e2a00d190e017d8632aab
:10c9f8002dd008d8002a00d19ae0582a55d0260010
:10ca0800423632702ae0642a01d0692af7d12168b7
:10ca18001a68080624d5111d1960156826e0732abe
:10ca280000d189e008d86f2a2ad0702ae7d12022bd
:10ca380009680a43226003e0752a21d0782aded1ea
:10ca480022007821453211706d4a113230e00e0013
:10ca58001a684236111d196013683370012379e092
:10ca68004906d8d5111d19600023d55e002d03dabb
:10ca78002d23049a6d421370614b0a2703932fe00c
:10ca880020681968050603d5081d18600d6805e0bb
:10ca98004006f9d50d68081d1860adb2584b082737
:10caa80003936f2a18d00a2716e045310a70544ab2
:10cab80003921a682168101d18601568080622d5a7
:10cac800cb0702d52023194321601027002d03d15d
:10cad800202322689a4322602300002243331a70dd
:10cae8006368a360002b5cdb04222168914321600a
:10caf800002d58d1049e002b64d02600039b42369b
:10cb08001b7833705ee04806dad5adb2d8e709681d
:10cb18001a68080605d5111d1960136862691a603c
:10cb280006e04906f7d5111d19601368a28a1a8014
:10cb38000023049e236154e01a68111d19601668c9
:10cb480000216268300003f09cfe002801d0801ba1
:10cb58006060636823610023049a137041e02369cd
:10cb6800320006990598079da847431c43d02368bf
:10cb780000259b070fd4099be06898423dda18000e
:10cb88003be022000123193206990598079eb04719
:10cb9800431c30d00135e368099a9b1a9d42f0dbab
:10cba800e9e7002da9d0049e2800390002f0b8f961
:10cbb800039b013e5b5c28003370390002f074f976
:10cbc800051ef1d1082f09d12368db0706d5636854
:10cbd8002269934202dc3023013e3370049b9b1b85
:10cbe8002361079b09aa00932100069b059801f081
:10cbf8002ffd431cb3d1012040420bb0f0bdc0460d
:04cc08008a06010097
:020000040000fa
:10cc0c00f0b59fb006000f0015000593002804d066
:10cc1c008369002b01d102f043fd764b9f425ed11c
:10cc2c007768bb891b0764d53b69002b61d0002357
:10cc3c0006ac63612023637630230395a376039db2
:10cc4c002b78002b5fd1039beb1a04930dd0049b24
:10cc5c00039a3900300003f08ff8431c00d1c2e076
:10cc6c006269049b9446634463612b78002b00d16a
:10cc7c00b9e00122532100235242626002aa5218e9
:10cc8c0001352360e360a3601370a3650522297846
:10cc9c00594803f0f4fd6a1c002838d12168cb06f2
:10ccac0006d520239c46532302a8c0186346037064
:10ccbc000b0706d52b239c46532302a8c0186346aa
:10cccc0003702b782a2b2bd000200a21e3682a78ba
:10ccdc00303a092a69d900282ad0e36028e0474b6a
:10ccec009f4201d1b7689ce7454b9f4299d1f768a9
:10ccfc0097e73900300001f0c5fb002897d00120e0
:10cd0c0040421fb0f0bd252b9dd0013598e73a4b22
:10cd1c002168c01a012383400b4323601500b5e73b
:10cd2c00059b181d1b680590002b38dbe360150074
:10cd3c002b782e2b0bd16b786a1c2a2b3dd1059ba3
:10cd4c0002351a1d1b680592002b33db63602978b2
:10cd5c0003222c4803f093fd002807d0294b2268ae
:10cd6c00c01a40238340134323600135224829789d
:10cd7c006b1c06220a300393217603f080fd05aa72
:10cd8c000092214b3a002100002828d0300003f0fb
:10cd9c008efe431c27d06369181860614fe75b4215
:10cdac00e36002230b432360c1e74b4301359b181f
:10cdbc0001208ce701235b42c8e7002315000a2001
:10cdcc001a00636029783039092903d9002bbed0a9
:10cddc006260bce74243013552180123f2e7300090
:10cdec00fff7f4fdd5e7bb895b0600d587e76069e3
:10cdfc0087e7c0460c070100b00901002c070100b1
:0cce0c00ec060100b609010085fd0000e5
:020000040000fa
:10ce1800f0b5c30f85b0440245000391640a2d0e96
:10ce28000293019330d0ff2d3ad08023e400db0435
:10ce38007f3d1c4300950027039b5e025d00db0fce
:10ce4800760a2d0e039334d0ff2d3cd08022280083
:10ce58000025f600d20416437f38039b029a5a40f5
:10ce6800009b9c4684446346b80028430138591cfb
:10ce78000e2833d803f056fd2f2f8c7b7bad8c7b8f
:10ce8800ad7b8c7a7a7a6b00002c0fd0200003f0ef
:10ce98007ff87626431f76429c40331a0093cae7f0
:10cea80000950327002cc7d10227c5e70094012766
:10ceb800c2e7301e0dd003f06bf8431f9e40762367
:10cec8005b42181ac9e728000325002ec5d10225a0
:10ced800c3e70125c1e734002f0048e0b7b2a3b289
:10cee800200c3c00350c47435c4368435d43230cee
:10cef800ed195b199f4202d980256d024019a4b231
:10cf08001d042d19ac01671ebc41ad0e25431c0c38
:10cf18002418a4012c4323013dd5012360081c409b
:10cf280004430d007f35002d37dd630704d00f2340
:10cf38002340042b00d00434230103d580310d0095
:10cf4800284b1c40e308fe2d19dd00230ce080234c
:10cf5800db031c4204d01e4202d13400039b019320
:10cf68008023019adb032343ff2508e0029a022f5e
:10cf7800ebd0032f31d000231d00012fd1d158024f
:10cf8800edb2ed05400ad2072843104305b0f0bdc5
:10cf98003400039aa0e76146c3e70120451b1b2d17
:10cfa8001ddc23002020eb40451bac40611e8c415a
:10cfb8002343590704d00f211940042900d0043312
:10cfc8008025ed041d40db08002dd8d00023012565
:10cfd800d5e780240023e403c1e70192c0e70023da
:10cfe8001d00cce7fffffff7f0b5c30f85b0440283
:10cff80045000391640a2d0e029301930ad0ff2d78
:10d0080038d08023e400db047f3d1c432e0000233e
:10d0180000930ae0002c33d0200002f0b9ff7626f6
:10d02800431f9c407642361a0095039b5f025d00c1
:10d03800db0f7f0a2d0e039325d0ff2d2dd08022e4
:10d0480028000025ff00d20417437f38039b029a6b
:10d05800361a5a40009b9800284301380e2824d8d5
:10d0680003f060fc4e9d639d979d634e4e976379d8
:10d07800797954002e000323002cc9d10223c7e775
:10d0880026000123c4e7381e0dd002f081ff431f9c
:10d098009f4076235b42181ad8e728000325002f03
:10d0a800d4d10225d2e70125d0e764017801844272
:10d0b80028d31a210123241a012527005b006400c4
:10d0c800002f01dba04201d8241a2b430139002983
:10d0d800f3d1611e8c411c4331007f3100293cddb6
:10d0e800630704d00f232340042b00d0043423010a
:10d0f80003d531002b4b80311c40e308fe2921dd8c
:10d10800002310e0013e1b210023d5e78023db0329
:10d118001c4204d01f4202d13c00039b0193802390
:10d12800019adb032343ff210ce03c00039a00959e
:10d13800009b022be4d0032b2fd00023009819006a
:10d148000128c9d15802c9b2c905400ad207084303
:10d15800104305b0f0bd029aeae70120411a1b29e5
:10d168001ddc23002020cb40411a8c40611e8c41dd
:10d178002343590704d00f211940042900d0043350
:10d188008021c9041940db080029dbd000230121d4
:10d19800d8e780240023e403c0e70192bfe7002317
:08d1a8001900cfe7fffffff7bc
:020000040000fa
:10d1b000f0b5c64600b58eb00400c568002d00d19c
:10d1c000c6e04668002e00d1c7e0077803233b4045
:10d1d000012b26d9032b69d0e220022b00d0b8e026
:10d1e000638898461bb2002b00dbb2e0a1682022c6
:10d1f000684603f0cbfb1422310008a803f0c6fbfd
:10d20000162234236946ca5435236a46cf5436233e
:10d210004146d1542a003721684603f0cef8002059
:10d2200097e08168002900d199e00222835e002bfb
:10d2300037db2022684603f0a9fb1422310008a83e
:10d2400003f0a4fb162234236946ca543523cf5475
:10d2500000223623ca542a003721684603f0adf86d
:10d26000e1684023ca5c10208243ca54e168ca5c6a
:10d270000f208243ca54e168ca5c20208243ca540a
:10d28000e168c85c7f220240ca54e36840335a78a0
:10d2900001210a435a70e26800214223d154002040
:10d2a00057e02022280003f071fbf4e73f233a0007
:10d2b0009a4331d1bb0625d540223100280003f026
:10d2c00065fb01224223e168ca54e1684023ca5c3d
:10d2d00010200243ca54e168ca5c0f208243ca543a
:10d2e000e168ca5c20208243ca54e168c85c7f229e
:10d2f0000240ca54e36840335a7801210a435a7005
:10d30000002026e020223100280003f03ffb00220d
:10d310004223e168ca54d8e74023ea5c10210a435b
:10d32000ea54c168ca5c0f208243ca54e168ca5cef
:10d3300020208243ca54e168c85c7f220240ca545c
:10d34000e36840335a7801218a435a70002000e094
:10d35000e2200eb004bc9046f0bde220f9e7e220e6
:02d36000f7e7ed
:020000040000fa
:02d36200704712
:020000040000fa
:10d36400f0b5de4657464e464546e0b5d5b00b907f
:10d37400002a00d1c0e00b00920189180a91020032
:10d38400a8320992604a91465ce0029d01950290a0
:10d394005846bc462700140002000b25ea4105004c
:10d3a4000626f541554002001926f24155404a46e9
:10d3b4008a58049e8e59b0464244ad18029a0240df
:10d3c4009046019a824346467240aa18d318039d98
:10d3d400ab469b4425000d26f54122000226f2416e
:10d3e4006a4025005646f5416a4065467d40254021
:10d3f40066463e4075405219d2180431019b654679
:10d40400039580256d00a942bfd13d006746089b66
:10d414009c4659460c920d940e9510911190029bc6
:10d424001293019b13930f9763460599079804c9b8
:10d434001c68a446624404c38342f8d1069b0a9a3a
:10d444009a4259d014a8402294469c4462466446a9
:10d45400069202001978d1705978917099785170b8
:10d46400d978117004330432a342f3d14268816b3a
:10d4740013000724e34114001225ec416340d20851
:10d4840053400268446aa44662449b180a0011246b
:10d49400e2410c001325ec416240890a4a409b1882
:10d4a4000364043044ab9842e0d10b9b882290463d
:10d4b40043449c460cab05936246099802ca02c3d6
:10d4c4008242fbd10792139a129b0193119b029300
:10d4d40010980f9b98460e9f0d9b0c9c002514a939
:10d4e400049116218a4661460891bc461f00130028
:10d4f4002900424603924fe755b03cbc90469946fa
:0cd50400a246ab46f0bdc0469ce1000012
:020000040000fa
:10d5100010b5654b9b7d002b17d0634b5b8b9b0736
:10d5200014d5624bff2120229954022121229954c3
:10d5300020235e4ad35c5bb2013300d183e0202319
:10d540005a4ad35c062b00d195e010bd564b5b8b3d
:10d55000db0707d5554bff212022995402212122b8
:10d560009954e5e7504b5b8b5b0707d54f4bff2189
:10d5700020229954012121229954d9e720234b4a92
:10d58000d35c5bb2032b40d0042b0fd0022bcfd146
:10d590001369002b04d09088002102f031fac7e70c
:10d5a000424b9888012102f02bfac1e73f4a936968
:10d5b0001269934208d03d4a9168581c9061c95c39
:10d5c0002823394ad154b3e7384b5b69002b0ed07e
:10d5d000364b9b885b0001221343334a5362d36965
:10d5e000002bfcd103212023304ad154a0e72e4a3e
:10d5f0005168c0239b020b435360d369002bfcd1bd
:10d6000006212023294ad15492e7284a5369013b35
:10d61000d2699a4209d0254bd968da69501cd86181
:10d6200028232148c35c8b5482e71f4a5168e023ba
:10d63000db020b435360d369002bfcd1062120236e
:10d640001a4ad154e7e700212023d154164a5168e1
:10d65000c0239b020b435360d369002bfcd1832270
:10d66000114b1a76114b5b6a002b00d16de70f4a04
:10d67000906a984769e71300002220215a5421211b
:10d680005a548322084b1a76190030224b8b1340d0
:10d69000102bfbd1054b5b6a002b00d155e7034ae9
:10d6a000906a984751e7c0460010004240040020ad
:020000040000fa
:10d6b000f0b5de4657464e464546e0b587b0824651
:10d6c000029117001800049310ab1a78934611ab1f
:10d6d0001a78039212ab1a7805925246002a00d1aa
:10d6e000a0e0002f00d1a5e0002800d1a4e003684d
:10d6f000984600230360002400250e1e6bd00f23e4
:10d700009946464601970de0039b002b09d003354f
:10d71000ae4200d294e02023019a135402e00500a7
:10d7200000e00500a81c864200d28be053461b5d3a
:10d73000019a521994461909092920d80132303129
:10d740006746397049460b40092b1dd93733137092
:10d750000134029ba3421ad0002ce0d05b46002b80
:10d76000d2d04b462342cfd10435ae4266d3019b83
:10d770009c4660440222344903f008f9d2e70132a2
:10d78000373167463970dde730331370e0e7b04674
:10d790000600019f059b002b25d000281bd03c00d4
:10d7a0003b189b4603239a4681465f46a34603e007
:10d7b00032700134a7420cd02600257803f00ef811
:10d7c00040194378524613402a00022bf0d1203ae8
:10d7d000eee74e465f46049b1e600020b04522d90e
:10d7e0000023bb551fe00028f5d03c003b189b46aa
:10d7f00003239a4681465f46a34603e03270013414
:10d80000bc420cd02600257802f0e8ff401943788e
:10d81000524613402a00012bf0d12032eee74e464b
:10d820005f46d8e7e22007b03cbc90469946a24646
:10d83000ab46f0bde220f6e7e220f4e7ed20f2e7a8
:0cd84000ed20f0e7ed20eee7cc0a01003f
:020000040000fa
:10d84c000a446576696365206e6f6e636520676553
:10d85c006e65726174696f6e206973207375636392
:10d86c0065737366756c2e0d000000000a4d414304
:10d87c002072656365697665642066726f6d2064dd
:10d88c0065766963653a0d0a25730d0a0000000080
:10d89c000a446576696365206d61632063616c631e
:10d8ac00756c6174696f6e206973206661696c6553
:10d8bc00647b253032587d2e0d0a00000a446576b3
:10d8cc00696365206e6f6e63652067656e65726156
:10d8dc0074696f6e206973206661696c65647b2561
:10d8ec003032587d2e0d0a000a486f7374206e6f0b
:10d8fc006e63652067656e65726174696f6e206911
:10d90c0073207375636365737366756c2e0d0000fd
:10d91c000a4d41432063616c63756c6174656420ce
:10d92c006f6e20486f73743a0d0a25730d0a000050
:10d93c000a486f7374206d61632063616c63756c4e
:10d94c006174696f6e206973206661696c65647bb4
:10d95c00253032587d2e0d0a000000000a526561f8
:10d96c0064696e672073657269616c206e756d6297
:10d97c006572206973206661696c65647b25303241
:10d98c00587d2e0d0a0000000a486f7374206e6fcc
:10d99c006e63652067656e65726174696f6e206970
:10d9ac0073206661696c65647b253032587d2e0d61
:04d9bc000a00c04657
:020000040000fa
:10d9c000f0b51d004f4b85b01e6804000f0000929b
:10d9d000002e05d0b369002b02d1300001f066fea5
:10d9e000494b9c4250d17468009b022b05d0012bff
:10d9f00000d984e0002d00da81e02100300001f040
:10da0000a9ff616b002908d023004433994202d05a
:10da1000300001f0bbf9002363630023a36163605e
:10da2000a3891b0603d52169300001f0aff9a38952
:10da3000364a1340a381009b022b5ad003ab02aaa3
:10da40002100300002f006f8a3891843a081002dc0
:10da500024d1029d280002f07dff0195071e42d1ce
:10da6000029b0193ab4239d1012040420223a2899b
:10da70001343a3810023a360230047332360236162
:10da80000123636105b0f0bd214b9c4201d1b46814
:10da9000aae7204b9c42a7d1f468a5e7002fd9d074
:10daa000b369002b02d1300001f000fe009b012b76
:10dab00003d1a389009a1a43a2810820a389276071
:10dac00027616561184018d0012018400023984252
:10dad00011d06d42a360a5611800d3e7019802f050
:10dae00039ff071ec0d08023a289019d1343a38163
:10daf000d6e70020bae7a560c4e7a060c2e701202e
:10db00004042bfe7e40400200c0701005cf3ffff84
:08db10002c070100ec060100e6
:020000040000fa
:10db1800f0b5c64600b59ab00400c368019302691f
:10db28000292057869460d734169002900d17be0ae
:10db38007721280088430100e220002903d01ab089
:10db480004bc9046f0bd0221294002d1a0680028fb
:10db58006cd001262e4002d16068002868d00320ce
:10db6800284002d0a769002f64d030272f4201d067
:10db7800002b61d06b0601d5002a5fd0002821d088
:10db8800a36940229a5a80204000c0277f003a406b
:10db9800824206d040335a7801218a435a70f420d1
:10dba800cde7aa08012084466046424090460127f6
:10dbb8004020185c00096246504042463a403840ce
:10dbc8008242e7d100292bd0a169202204a802f0c3
:10dbd800d9fe002e26d0a16904ae20220ca802f09e
:10dbe800d1fe08224023f2544123f554638842228f
:10dbf800b3541b0a4322b35415ab0093684600f094
:10dc080029ff62695821300002f0d3fba369002b79
:10dc180016d040335a7801218a435a7000208ee783
:10dc2800a168d2e76168d7e7e22088e7e22086e7c3
:10dc3800e22084e7e22082e7e22080e7e2207ee734
:04dc480000207ce755
:020000040000fa
:10dc4c00f0b5de4657464646c0b592b007900591f2
:10dc5c0006929b461b9b98460023119302291fd8c2
:10dc6c00059b022b27d0002304934346002b1bd08b
:10dc7c001a9b002b27d011ab069a0599079800f038
:10dc8c0025fe0490002823d143465b44119a93420d
:10dc9c0021d85b465b099a462027002400253de0ed
:10dcac00e220fff758fb0490049812b01cbc90467d
:10dcbc009a46a346f0bd069b0f2bd4d9e220fff762
:10dccc004afb0490f0e7e220fff745fb0490ebe7fa
:10dcdc00fff741fbe8e7e220fff73dfb0490e3e7a9
:10dcec0053465b01119ad31a1f2b19d85b465b194b
:10dcfc009b0807241c40042712e0fff72cfbd3e7fa
:10dd0c001a9b581909ab9c466144320002f038fe4c
:10dd1c00ad19202f25d00134a845c5d9202fdfd02f
:10dd2c0053466a461374137c029709aa0192e2b215
:10dd3c000092069a0599079800f0e6fe04900028d8
:10dd4c00dbd15346db001b199b0000219b4501d9fd
:10dd5c005a46d11a7b1a4246561b9e42d0d91e00f7
:0add6c00cee701239c46e244d6e70f
:020000040000fa
:02dd76007047f4
:020000040000fa
:10dd7800f7b58a8905000c00130760d44b68002b9f
:10dd880004dc0b6c002b01dc0020febde76a002fd1
:10dd9800fad000232e682b6080235b011a4034d010
:10dda800606da3895b0706d56368c01a636b002b97
:10ddb80001d0236cc01a0200216a00232800e76af8
:10ddc800b847a189431c06d12b681d2b31d82c4a92
:10ddd800da40d3072dd50023636023692360cb0481
:10dde80005d5431c02d12b68002b00d16065616bff
:10ddf8002e600029c8d023004433994202d028005d
:10de080000f0c0ff00206063bfe70123216a2800fb
:10de1800b847431cc5d12b68002bc2d01d2b01d09d
:10de2800162b01d12e60afe74023a2891343a381ab
:10de3800abe740230b430120a3814042a5e70f69cc
:10de4800002fa1d00b680f60db1b01930023920702
:10de580000d14b69a360019b002b00dc94e7019b78
:10de68003a00216a2800a66ab047002803dc40234c
:10de7800a2891343dfe7019b3f181b1a0193eae7c6
:04de88000100402035
:020000040000fa
:10de8c0070b5002841d00468002900d135496300e1
:10de9c000020994262d3344b9c425fd8080001f0b9
:10deac0079fa051c200001f075fa011c281cfff7fb
:10debc0099f8061c2d49281cfef7a8ff2c49fef7e3
:10decc0013fc011c301cfef795fa02f0d5f9050085
:10dedc00284b9c4208d8ff235b00ff209d4219d899
:10deec00012d14d9680815e07e23ff33984210d811
:10defc00032834d94000032100f0d4ff060203218b
:10df0c00280000f0cfff304304e0002026e0012081
:10df1c0000e019481749a14289414942174a136840
:10df2c000224a3431360d369002bfcd1134bd8609c
:10df3c001a68090612480240114319601a68022136
:10df4c000a431a601a00d369002bfcd110220b4b28
:10df5c005a831a00d369002bfcd1012070bd0948eb
:10df6c00d8e7c046006cdc0240420f0095bfd633a8
:10df7c0000002041801a06007fff000000100042c4
:08df8c00fffffffc0102000091
:020000040000fa
:10df9400f0b5de4657464e46c0b584b005000e00c7
:10dfa400080002f091fb0090300002f061fc0700d1
:10dfb40003239a4677239b460023994615e033684a
:10dfc4001b78002b1cd153462b706b7801332a002d
:10dfd4000099300001f0fcfa0400e72815d14b4603
:10dfe4003374013f7b1c002b11dd337c032be6d003
:10dff400300001f050ff0028e1d153463374dee7ce
:10e00400012be2d15b462b70dfe700280fd0336889
:10e014005b78052b04d0300001f08efd02233374ad
:10e02400200004b01cbc91469a46a346f0bd0120d2
:10e0340002f05cfc164fab1d0193c0252a000021a1
:10e04400019c200002f0d4fc02abdd8006332200e8
:10e054000099300000f09ef9041e10d0022002f056
:10e0640045fc013f002fe9d1d1e7019802f03ef8c9
:10e07400041eccd1019801f04bfb0400c7e702abae
:10e08400dc88032cf1d860426041e6300400bee72e
:04e09400e3040000a1
:020000040000fa
:10e098000020202020202020202028282828282070
:10e0a8002020202020202020202020202020202068
:10e0b80020881010101010101010101010101010d0
:10e0c80010040404040404040404041010101010c0
:10e0d800101041414141414101010101010101018a
:10e0e80001010101010101010101010110101010dc
:10e0f800101042424242424202020202020202025c
:10e1080002020202020202020202020210101010af
:10e1180020000000000000000000000000000000d7
:10e1280000000000000000000000000000000000e7
:10e1380000000000000000000000000000000000d7
:10e1480000000000000000000000000000000000c7
:10e1580000000000000000000000000000000000b7
:10e1680000000000000000000000000000000000a7
:10e178000000000000000000000000000000000097
:10e188000000000000000000000000000000000087
:01e198000086
:020000040000fa
:10e19c00982f8a4291443771cffbc0b5a5dbb5e906
:10e1ac005bc25639f111f159a4823f92d55e1cab7a
:10e1bc0098aa07d8015b8312be853124c37d0c5508
:10e1cc00745dbe72feb1de80a706dc9b74f19bc150
:10e1dc00c1699be48647beefc69dc10fcca10c2440
:10e1ec006f2ce92daa84744adca9b05cda88f97624
:10e1fc0052513e986dc631a8c82703b0c77f59bf8e
:10e20c00f30be0c64791a7d55163ca0667292914b9
:10e21c00850ab72738211b2efc6d2c4d130d385356
:10e22c0054730a65bb0a6a762ec9c281852c729218
:10e23c00a1e8bfa24b661aa8708b4bc2a3516cc746
:10e24c0019e892d1240699d685350ef470a06a107f
:10e25c0016c1a419086c371e4c774827b5bcb034ce
:10e26c00b30c1c394aaad84e4fca9c5bf36f2e686c
:10e27c00ee828f746f63a5781478c8840802c78cfb
:10e28c00faffbe90eb6c50a4f7a3f9bef27871c6fe
:020000040000fa
:10e29c00f0b5d6464f4680b585b00600fff765fd54
:10e2ac000700e224002865d002f0defa05003000f9
:10e2bc0002f006fa0190013dedb2334b994602abe8
:10e2cc009e1c04239a4614e00023002200213800ef
:10e2dc0002f046f904004de00393534603aa0621cd
:10e2ec00380002f03df9041e3bd0ff2d42d0013d19
:10e2fc00edb23b689b684b451ad94b46039353468a
:10e30c0003aa0621380002f02bf90400f528dbd013
:10e31c00002300220021380001f034ff380002f005
:10e32c003bfa02f048fb53463380002cddd10ce065
:10e33c00002300220021380001f024ff380002f0f5
:10e34c002bfa02f038fb53463380330003aa0199b1
:10e35c00380002f0f3f8041e12d13b689b684b4561
:10e36c00bad8318803a801f01bfb0400ff2d01d0a3
:10e37c000028bcd1200005b00cbc91469a46f0bddb
:0ce38c00ff2db4d1f6e7c046a0860100ca
:020000040000fa
:10e39800f0b585b00500019116001f00012202abff
:10e3a800da80002f29d0002e27d002f0edf80028bf
:10e3b80028d1002300220421280002f0d3f8040009
:10e3c800f52801d000280fd12b681b78012b21d00c
:10e3d800002202ab5a71012302aa053201992800d2
:10e3e80001f0d2fe041e19d00023002205212800c6
:10e3f80002f0b8f8200005b0f0bde220fef7adff4e
:10e408000400f7e73b0032000021280002f098f8ea
:10e418000400efe7882202ab5a71dce702ab06334f
:10e4280032000199280002f08bf8041e0cd13278d2
:10e4380002abda803b88934209d3032a0cd8e62042
:10e44800fef78bff0400cfe7fef787ffcce7ed2050
:10e45800fef783ff0400c7e702ab0633013a1a80d0
:10e46800721c0199280002f06bf8041e07d102ab58
:10e478009a1ddb8801339bb213803b80b4e7fef71b
:06e488006cff0400b0e788
:020000040000fa
:02e48e007047d5
:020000040000fa
:10e49000364b70b51d6806000c00002d05d0ab6929
:10e4a000002b02d1280001f001f9314b9c420fd121
:10e4b0006c680c23e25e93b219072dd4d90611d4ef
:10e4c00009233360402301201343a381404270bde0
:10e4d000284b9c4201d1ac68ebe7274b9c42e8d12a
:10e4e000ec68e6e75b0713d5616b002908d02300d1
:10e4f0004433994202d0300000f048fc00236363ab
:10e500002422a3899343a3810023636023692360aa
:10e510000823a2891343a3812369002b0bd1a021d7
:10e520008022a389890092000b40934203d02100ee
:10e53000300000f045fe0123a289134011d00023d2
:10e54000a36063695b42a361002023698342bed15b
:10e550000c23e25e1306bad540231343a38101388e
:10e56000b5e7920700d46369a360ede7e4040020f7
:0ce570000c0701002c070100ec06010064
:020000040000fa
:10e57c0070b505000e00002804d08369002b01d172
:10e58c0001f08ef8ab69ac68002b02d1280001f0c9
:10e59c0087f82a4b9c421bd16c680c23e25e8023cb
:10e5ac009b011a4205d11343a381226e244b1340c5
:10e5bc002366a3891b0702d52369002b20d12100d8
:10e5cc002800fff75fff00281ad00120404270bde1
:10e5dc001c4b9c4201d1ac68dfe71b4b9c42dcd14d
:10e5ec00ec68dae7013b0136a360002b04daa26980
:10e5fc00934216db0a2914d023685a1c2260197026
:10e60c003178a3680029edd1013ba360002b0fda10
:10e61c0022000a21280000f0f3f8431cd5d00a2070
:10e62c00d5e72200280000f0ebf8431ce8d1cce73a
:10e63c000a2023685a1c22601870c8e70c070100d6
:0ce64c00ffdfffff2c070100ec060100bf
:020000040000fa
:10e65800f7b5150001938a680b6900900c00934286
:10e6680000da130022002b6043321278002a01d00e
:10e6780001332b6023689b0602d52b6802332b607d
:10e68800062723681f4027d0230043331b785a1ed0
:10e6980093412268920630d42200019943320098af
:10e6a800089eb047431c25d0062320682a68e168e5
:10e6b80003400025042b03d18d1aeb43db171d40c3
:10e6c800a3682269934201dd9b1aed180027bd4219
:10e6d80020d1002010e00137e3682a689b1a9f4286
:10e6e800d2da22000123193201990098089eb04716
:10e6f800431cf0d101204042febd3020e1184331d7
:10e70800087021005a1c45310978a2184332023397
:10e718001170c1e7220001231a3201990098089e5e
:0ae72800b047431ce6d00137d1e7eb
:020000040000fa
:02e73200fee700
:020000040000fa
:10e7340030b5a1b00fac44220021200002f058f9fa
:10e7440000230b93264b0c93264b0d930e940ba88e
:10e75400fef72cfd041e3bd12348283002f0eef8ce
:10e76400224b186801a901f00cfa041e2ad104a84e
:10e77400002304934360c360412303700523438053
:10e784001b4b836001ab03611a4b43610fab836185
:10e79400fff7c0f9041e0fd1174bc82252001a60ac
:10e7a400164d2a002021164802f0b4f829000e481c
:10e7b400503001f0d1fc10e001000b48703001f042
:10e7c400cbfc0ae001000f481c3001f0c5fc04e05a
:10e7d40001000c48483001f0bffc200021b030bdde
:10e7e4002802002008020020ccd80000e004002009
:10e7f4006c040020340000203c020020780000203b
:08e80400540000204cd9000073
:020000040000fa
:10e80c00f8b505000e001400002804d08369002b15
:10e81c0001d100f045ff294b9c4233d16c68a369b0
:10e82c00a360a3891b0737d52369002b34d00c2395
:10e83c00e25e80239b01f7b2f6b21a4236d023680f
:10e84c002269981a6369984205db2100280001f0bf
:10e85c007bf8002826d1a3680130013ba360236814
:10e86c005a1c22601f706369984204d0a389db078d
:10e87c001ad50a2e18d12100280001f065f80028bd
:10e88c0012d00fe00e4b9c4201d1ac68c7e70d4b88
:10e89c009c42c4d1ec68c2e721002800fff7f2fdce
:10e8ac000028c4d0012676423000f8bd1343a38162
:10e8bc00226e054b13402366c1e7c0460c070100ce
:0ce8cc002c070100ec060100ffdfffff3d
:020000040000fa
:10e8d80010b500280fd0002b0dd000684078002814
:10e8e80019d101290fd0002909d002290fd0e2201f
:10e8f800fef733fd02e0e220fef72ffd10bd58229f
:10e908001a600020fae740221a600020f6e7202269
:10e918001a600020f2e7042809d0012921d0002933
:10e928001bd0022921d0e220fef717fde6e70129d6
:10e938000bd0002905d002290bd0e220fef70dfdef
:10e94800dce758221a600020d8e700221a6000206d
:10e95800d4e720221a600020d0e780221a60002025
:10e96800cce740221a600020c8e7072a07d9082afe
:10e9780009d00f2a0cd848221a600020bee72422aa
:10e988001a600020bae79932ff321a600020b5e712
:08e99800e220fef7e2fcb1e70a
:020000040000fa
:10e9a000032370b5cd1c9d43083506000c2d1ed2e7
:10e9b0000c25a9421dd8300001f02ff9254a146812
:10e9c0002100002919d1244c2368002b03d13000e9
:10e9d00001f002fe20602900300001f0fdfd431c23
:10e9e0002cd10c233000336001f097fa03e0002da6
:10e9f000dfda0c233360002070bd0b685b1b1ad478
:10ea00000b2b03d90b60cc18256003e08c420ed190
:10ea100063681360300001f080fa200007220b3099
:10ea2000231d9043c31ae7d05a42e250e4e74b68f3
:10ea300063600c00eee70c004968c2e70323c41cc6
:10ea40009c43a042e0d0211a300001f0c5fd431cd8
:0cea5000dad1c6e7e8040020ec04002046
:020000040000fa
:10ea5c0010b50400037bda0638d49b063fd5082298
:10ea6c004168006801f08cff21680b0008332360bb
:10ea7c000022002008725a709a70236803332360b6
:10ea8c0023685a1c2260a268127a1a70237b5b06d8
:10ea9c002bd5a368191d0422206801f071ff23688f
:10eaac005a1d2260a26812781a7123685a1c2260bf
:10eabc00a26852781a70237b5b061ed4236800224e
:10eacc001a705a702368981c206010bd0b22416884
:10eadc00006801f055ff23680b332360d0e7082250
:10eaec000021006801f080ffbee7236800220021ae
:10eafc0019705a709a70da70d1e7a368991c0222c7
:08eb0c00206801f03dffdde788
:020000040000fa
:10eb1400f0b5b7b006000f0011001a003cab1b782b
:10eb24003ea80578002e12d03d9800280fd0042d61
:10eb34003cd0202d10d10e2068440090380001f004
:10eb44008ff8041e0fd02000fef709fc08e0e22035
:10eb5400fef705fc040003e0e220fef700fc0400dd
:10eb6400200037b0f0bd80231f4304ace7700e23b0
:10eb74006b441b88a380300001f06ffe210001f07c
:10eb840097fe041e0cd1310004a8fff701fa041efd
:10eb940009d12a00172169443d9801f0f5fedfe709
:10eba400fef7ddfbdce7fef7dafbd9e70e2068446d
:0eebb4000090380001f054f8041ed6d0c3e7dc
:020000040000fa
:10ebc20030b5b3b0050003200840002d0ed06c46ce
:10ebd200e170a28002280ed9032833d18a062bd5f0
:10ebe20040221900a01d01f0d0fe09e0e220fef74c
:10ebf200b7fb04002ae014221900a01d01f0c5fe93
:10ec0200280001f02bfe694601f0e3f9041e20d131
:10ec120029006846fff7bdf9041e1dd1369b002b63
:10ec220014d06b469b79222b10d920226b46d91d1a
:10ec3200369801f0aafe09e020221900a01d01f079
:10ec4200a4fedde7e220fef78bfb0400200033b0d8
:0eec520030bdfef785fbf9e7fef782fbf6e723
:020000040000fa
:10ec60001d4b00229a619a8c80218a439a84190054
:10ec70001022cb681a42fcd0184b1b689b0e3f2b0e
:10ec800028d09b02164a12689205920d1343124a2d
:10ec9000936211001022cb681a42fcd002220e4b64
:10eca0009a8419001022cb681a42fcd00d4a0e4bf0
:10ecb0005a601a0053785bb2002bfbdb0a4b0b4afd
:10ecc0005a8001325a800a4a0a4b1a620022024bc9
:10ecd0001a6270471f23d4e70008004024608000b8
:10ece0002860800000070100000c00401640000072
:08ecf0003000010000040040a7
:020000040000fa
:10ecf80030b583b01c4c1421200001f0edfa1b4bf9
:10ed080018681b4a210001f0dbfd041e23d11948b5
:10ed180001f012fe154b1868174b009300230522cb
:10ed2800412100f0fefa041e0fd1144bc8225200f4
:10ed38001a60134d2a0020210f4801f0e9fd29002f
:10ed48000c482c3001f006fa0ae00100094850305e
:10ed580001f000fa04e0010006487c3001f0faf9fd
:10ed6800200003b030bdc04628020020e004002087
:10ed7800080200204cd80000540000203c0200206b
:04ed880078000020ef
:020000040000fa
:10ed8c0070b50500002910d00c1f2368002b00da89
:10ed9c00e418280000f03bff1d4a1368002b05d136
:10edac0063601460280001f0b2f870bda34209d969
:10edbc00216860188342f3d118685b6841182160a0
:10edcc00eee713005a68002a01d0a242f9d919685b
:10eddc005818a0420bd120680918581819608242a3
:10edec00e0d110685268411819605a60dae7a04205
:10edfc0002d90c232b60d5e721686018824203d11d
:10ee0c00106852684118216062605c60cae7c046b5
:04ee1c00e8040020e6
:020000040000fa
:10ee2000204a214b70b50021934203d2197001335f
:10ee30009342fbd1002503261c4803684168002b40
:10ee400018d100292dd083680c30002b18d0002356
:10ee50000022845c9c5401328a42fad333000b4076
:10ee60005a1e93418908591889004018036841685f
:10ee7000002be6d082680c30002a07d10029dcd0b4
:10ee800059181d7001338b42fbd1d6e70029dfd121
:10ee900033000b405a1e93418908591889004018c5
:10eea000e4e770bd4402002000000020d0c0000054
:020000040000fa
:10eeb000002934d00123002210b488422cd301242d
:10eec0002407a14204d2814202d209011b01f8e7c2
:10eed000e400a14204d2814202d249005b00f8e77b
:10eee000884201d3401a1a434c08a04202d3001ba7
:10eef0005c0822438c08a04202d3001b9c082243da
:10ef0000cc08a04202d3001bdc082243002803d017
:10ef10001b0901d00909e3e7101c10bc704701b5bb
:10ef2000002001f0d5fd02bd0029f8d003b5fff7a0
:0cef3000c1ff0ebc4243891a1847c046be
:020000040000fa
:10ef3c0010b50400f020002c33d022000832211d23
:10ef4c00206801f01bfcfef706fa002829d1a36803
:10ef5c00002b18d01a68002a10d05b68002b0dd03b
:10ef6c00216820009047fef7f6f9002819d1a36814
:10ef7c005b6820009847fef7eef902e0f620fef7fa
:10ef8c00eaf900280dd163681a68002a11d05b6871
:10ef9c00002b0ed0216820009047fef7dcf90028ea
:10efac0000d010bd63685b6820009847fef7d3f96a
:0aefbc00f7e7f620fef7cff9f3e7c0
:020000040000fa
:10efc600f0b5ce4600b582b006000d0014004068cc
:10efd60040273f1a974200d91700083030183a00e8
:10efe600290001f0d0fc7368e3183f2b04d8736046
:10eff60002b004bc9146f0bd08239c46b444634667
:10f006000122019361463000fef7a9f9e41ba2092b
:10f016009146e9193000fef7a2f94a46531c9b01b6
:10f0260032689446634433603f231a00224072607c
:10f0360021009943c9196918019801f0a4fcd7e782
:020000040000fa
:02f04600fee7e3
:020000040000fa
:10f04800f8b51e4b07001e68b369002b02d13000cb
:10f0580000f028fb4836b4687368013b04d5336870
:10f06800002b07d03668f6e70c22a55e002d0dd0e0
:10f078006434f2e70421380001f044f930600028d4
:10f08800f0d10c2304003b602000f8bd01235b4253
:10f09800e381200001232566a3812560a5606560c2
:10f0a80025616561a56108222900583001f09efca0
:10f0b8006563a563a564e564e6e7c046d40a010074
:020000040000fa
:10f0c800f8b505000c0040682b68c7182f60ff00d2
:10f0d80009235b421b1a3f261e40431c6b602b18fa
:10f0e80080221a72321d09302818002101f07efc96
:10f0f8006b689c466644ab193a0e1a733a0c5a73fd
:10f108003a0a9a73320008326a60df73920929005a
:10f1180008312800fef722f928008830a83503e0d6
:10f1280004300434a84208d003230278e254026869
:0cf13800120a0260013bf8d2f2e7f8bdb9
:020000040000fa
:10f14400f0b585b001900e00140001f037fb0128e2
:10f154001ad1731efe2b17d8050002ab1e710027af
:10f16400af4220d003abd95da368013ba360002b61
:10f1740004daa269934219db0a2917d023685a1cbe
:10f18400226019700137ebe723003200583303a9da
:10f19400019800f0abfc0500431ce0d140230600bd
:10f1a400a2891343a381300005b0f0bd2200019869
:0cf1b400fff72afb431ce5d10600f4e73e
:020000040000fa
:10f1c000f7b502268b8905000c00334206d02300d8
:10f1d00047332360236101236361f7bd01ab6a46b6
:10f1e00000f038fc009907002800fff7d9fb002841
:10f1f00006d10c22a35e9a05efd41e43a681e6e752
:10f200000d4bab628023a28920601343a381009b36
:10f2100020616361019b002b0ad00e23e15e280070
:10f2200001f010fa002803d00123a2891343a3811f
:0cf23000a0893843a081d0e7050a010046
:020000040000fa
:10f23c00f0b54a0245024600c30f48006d0a360e6f
:10f24c00520a000ec90fff2e01d1002d25d1ff2827
:10f25c0001d1002a21d10024a64202d16c426c417a
:10f26c00e4b2002801d1002a1ad0002c05d18b421f
:10f27c0001d1864205dd5b4206e0012001390843dd
:10f28c00f0bd864203da013b01201843f8e79542b2
:10f29c00f1d820009542f6d3f2e702204042efe786
:10f2ac001000002cecd1e6e7f0b54a024f00450205
:10f2bc0046006d0a360ec30f520a3f0ec90fff2ec1
:10f2cc0002d10220002d19d1ff2f02d10220002ad9
:10f2dc0014d10024a64202d16c426c41e4b2002f3e
:10f2ec0001d1002a17d0002c05d18b4201d1be428e
:10f2fc0005dd5b4206e0012001390843f0bdbe424a
:10f30c0003da013b01201843f8e79542f1d82000bd
:0ef31c009542f6d3f2e71000002cefd1e9e79e
:020000040000fa
:10f32a0030b5b3b0051e23d03698002820d06846e1
:10f33a00c1708280ca0706d4002b1ed02022190071
:10f34a00063001f01efb280001f084fa694601f03c
:10f35a00a8f9041e16d129006846fef716fe041ef7
:10f36a0015d120226b46d91d369801f00afb0be015
:10f37a00e220fdf7f1ff040006e0e220fdf7ecffd2
:10f38a00040001e0fdf7e8ff200033b030bdfdf7cf
:04f39a00e3fff9e7ad
:020000040000fa
:02f39e00fee788
:020000040000fa
:10f3a00070b50300041e08d000f0f6fd9e231b1a62
:10f3b000962b08dc9622d21a9440d8b26402640ad2
:10f3c000c005204370bd992b0addb9222100d21a55
:10f3d00091400a00511e8a410521091acc4014436c
:10f3e00099212200c91a002900dd8a401400084929
:10f3f0000c40550704d00f252a40042a00d00434bd
:10f40000620102d59f230c401b1ae408d5e7c046d1
:10f41000fffffffb8446081c6146ffe71fb5fff7af
:10f4200049ff002801d40021c8421fbd10b500f0db
:10f43000cffb4042013010bd10b5fff73bff002865
:10f4400001db002010bd012010bdc04610b5fff744
:10f4500031ff002801dd002010bd012010bdc04695
:10f4600010b5fff7ebfe002801dc002010bd0120e5
:10f4700010bdc04610b5fff7e1fe002801da0020fc
:08f4800010bd012010bdc046c3
:020000040000fa
:10f48800f0b583b005000c0000282ad00368002bd3
:10f4980001d001f033fa1449144b0a00c1cbc1c2a0
:10f4a8001b681360200001f0a3f9002804d10e4b5b
:10f4b8002b606378032b01d003b0f0bd0a48012309
:10f4c8000193030011330093132300220021fef758
:10f4d800b9fb0028f0d12a68537c07218b43537469
:10f4e800eae70020e8e7c0460000002024000020ea
:020000040000fa
:10f4f800f0b583b0019114001f0001f08efa051ecb
:10f5080016d0002f14d0002c12d0c66a002e14d0aa
:10f518003a88019b5808210033689847f02400284e
:10f5280010d12000fdf719ff0400200003b0f0bd42
:10f53800e220fdf712ff0400f7e7e220fdf70dffd8
:10f548000400f2e73a88a968300000f0a7fa041e20
:0ef55800e7d1f36898470028e7d0f024e1e7f8
:020000040000fa
:02f566007047ec
:020000040000fa
:10f56800f0b5d6464f464646c0b59446002821d049
:10f578008946884680440023134816e06d00edb2a2
:10f58800013e002e0cd0df0b5b009bb22c000c4020
:10f59800621e9441e4b2bc42f0d043409bb2ede716
:10f5a80001229246d144c14505d04a461178082621
:10f5b8000125e8e70023624613701b0a53701cbc40
:0cf5c80090469946a246f0bd0580ffff6a
:020000040000fa
:10f5d400f0b583b00600019117001d00002a01d088
:10f5e400002b06d1e220fdf7bafe0400200003b090
:10f5f400f0bd00f0cbff002818d100230022042125
:10f60400300000f0b1ff0400f52801d0002806d135
:10f614002b003a000199300000f0b8fd04000023eb
:10f6240000220521300000f09fffdfe76b1e3a0047
:0cf63400ff21300000f0aafd0400d7e721
:020000040000fa
:10f6400070b5b2b005000e0000281dd000236a4638
:10f65000d370938001f003f9694601f021f9041e8b
:10f6600017d129006846fef795fc041e16d16b469b
:10f670009b79232b15d1002e0dd020226b46d91d4e
:10f68000300001f083f906e0e220fdf76afe040095
:10f6900001e0fdf766fe200032b070bdfdf761feaf
:0cf6a000f9e7e620fdf75dfe0400f4e74a
:020000040000fa
:10f6ac00836913b50400002b28d18364c3640365fc
:10f6bc00134b144a1b6882620193984201d10123b7
:10f6cc0083612000fff7bafc60602000fff7b6fcf6
:10f6dc00a0602000fff7b2fc0022e060042160680b
:10f6ec0000f06efb01220921a06800f069fb0222e8
:10f6fc001221e06800f064fb0123a36113bdc04636
:08f70c00d40a0100050a010006
:020000040000fa
:10f7140002780023042a01d0180070474278072a8f
:10f7240021d0d3b2072b0bd8012a1ad0002a1ed01d
:10f73400d223032af0d0d623052aedd0e123ebe728
:10f744000f2a12d0d3b20f2b07d9f323112ae3d0f7
:10f75400d2b2d423ff2adfd0f0e7fa23082adbd081
:10f76400ece7d123d8e7d723d6e7f423d4e7002363
:02f77400d2e7da
:020000040000fa
:10f77600f0b583b00d000192009301f04ff9061e1b
:10f7860023d0c76ae224002f20d01e2281683800c9
:10f7960000f085f9041e19d16808009a01997b6862
:10f7a6009847f024002811d06b461a88b1683800b3
:10f7b60000f075f9041e09d1fb689847002805d0aa
:10f7c600f020fdf7cbfd040000e0e224200003b0aa
:02f7d600f0bd84
:020000040000fa
:10f7d80010b50400a822002101f008f90c4a88237a
:10f7e800e2500c4a8c23e2500b4a9023e2500b4a19
:10f7f8009423e2500a4a9823e2500a4a9c23e25092
:10f80800094aa023e250094aa423e25010bdc04689
:10f8180067e6096a85ae67bb72f36e3c3af54fa599
:10f828007f520e518c68059babd9831f19cde05bc5
:020000040000fa
:10f838000122144b1a601a00d369002bfcd18022d4
:10f848005200104b5a601a00d369002bfcd10d4ba3
:10f85800e822da600c4a1a601a00d369002bfcd13e
:10f868001022084b5a831a00d369002bfcd1074b8e
:10f87800002221215a5420215a548322014b9a757f
:10f888007047c046001000421600100040040020d7
:020000040000fa
:10f8980010b5154b1b78012b10d0002b04d0022b70
:10f8a80015d0032b1bd010bd104801f08ff8012391
:10f8b800002800d004230c4a1370f4e7fff718fa65
:10f8c8000223002800d00423074a1370ebe7fef751
:10f8d8002dff431e98410330034b1870e3e70422c1
:10f8e800014b1a70dfe7c0467400002010040020a6
:020000040000fa
:10f8f80070b504000d00002823d000f0d7fc002dbf
:10f9080019d020000024104a0421072605e0138d91
:10f91800038002300134a5420ed0137e0b42fcd086
:10f92800538b334208d153683340012befd0138dea
:10f9380003700130eee700242c1b60426041c0b226
:0cf9480070bd0020fce7c0460014004227
:020000040000fa
:10f954000b6970b505000c00002b01d1002070bdaf
:10f96400002804d08369002b01d1fff79dfe0b4bc7
:10f974009c4209d16c680c22a35e002beed02100be
:10f984002800fef7f7f9eae7054b9c4201d1ac6881
:10f99400f1e7044b9c42eed1ec68ece70c07010064
:08f9a4002c070100ec06010034
:020000040000fa
:10f9ac0070b582b005000e00114c0422210001a894
:10f9bc0000f0e6ff211d0422684600f0e1ffd02094
:10f9cc00042e01d002b070bd042201a9280000f061
:10f9dc00b7fe03000020002bf4d004226946280057
:10f9ec0000f0aefe0300d720002bebd0d020e9e7cf
:04f9fc006c0a010090
:020000040000fa
:10fa000010b5114b00229a61da61104b83221a76ed
:10fa10005a680f4c22405a601a00d369002bfcd15f
:10fa200000290cd003242023074ad4544000084363
:10fa3000064b58621a00d369002bfcd110bd042478
:10fa40002023014ad454f1e7400400200010004272
:04fa5000fffffbffba
:020000040000fa
:10fa540070b50e001d000e23c95e90b0140000297d
:10fa640007da00232b60b3891b0611d48023db0043
:10fa74000fe001aa00f0d2fd0028f2dbf022029b85
:10fa840012021340054a9b185a4253412b60ede77a
:10fa940040230020236010b070bdc04600e0ffff8b
:020000040000fa
:10faa40070b506000800023292b20f4c5443fa219a
:10fab4008900fff7fbf901002000fff7f7f9441c68
:10fac40003e0012000f07bff2c00b3689847002876
:10fad40003d0651e002cf4d12c00002c01d1f020a1
:0cfae40070bd0020fce7c0462823000095
:020000040000fa
:10faf0007fb51d000f4b04001b681b6a002911d144
:10fb0000002b00d10c4be0331e6800222b0001a912
:10fb10002000b047431c03d100232b608a232360bd
:10fb200004b070bd002b00d1034be0331e682b00e6
:0cfb3000eee7c046e40400204402002080
:020000040000fa
:10fb3c0030b583b0040000f025fd002818d12368ef
:10fb4c001b78012b14d0200000f083fe0300002052
:10fb5c00052b10d06b46dd1d02232b70200000f00e
:10fb6c00affd010001232a00200000f00bfb02e096
:0afb7c00200000f039fb03b030bd9b
:020000040000fa
:10fb860030b58db00c1e18d02023029304ab019320
:10fb96000023009300220021fef7b9ff051e11d1b4
:10fba600042204a9200000f0eefe201d052206a96d
:10fbb60000f0e9fe28000db030bde220fdf7cefbd7
:0afbc6000500f7e7fdf7cafbf4e7be
:020000040000fa
:10fbd00070b5430242004e024d00c40f5b0a120e84
:10fbe000760a2d0ec90f0120ff2a06d1002b13d152
:10fbf000ff2d11d1002e0fd105e0ff2d0cd0aa4210
:10fc00000ad1b34208d100208c4205d00120002a3d
:0afc100002d11800431e984170bd98
:020000040000fa
:02fc1a00704731
:020000040000fa
:10fc1c0010b5064c2378002b07d1054b002b02d0d6
:10fc2c00044800e000bf0123237010bd8c040020a9
:10fc3c000000000000000000044b10b5002b03d0a6
:10fc4c000349044800e000bf10bdc046000000009e
:08fc5c009004002000000000ec
:020000040000fa
:10fc640070b5049c03252840002c0cd0002803d038
:10fc7400022810d001280ad1d200072003401a43d9
:10fc84002280002070bde220fdf769fbfae7e22044
:10fc9400fdf765fbf6e7c900072003400b4312029a
:08fca4001a4322800020ede765
:020000040000fa
:10fcac0010b506220e4b5a600e4c23685868002182
:10fcbc0000f06ffe23689868002100f06afe00f0e7
:10fccc00b3fbfef7c7ff00f0d5f900f0abfefff772
:10fcdc00adfdfef7d6fb00f0abfe00f091fb10bdc6
:08fcec0000400041e404002087
:020000040000fa
:10fcf40010b50a4b98470a4b9847fff78ff8094a03
:10fd0400ff21094b8b439360084b9847084b984756
:10fd1400084b984700f07cfefee7c04667f50000fc
:10fd240067f5000000ed00e000c000003dfd0000ac
:08fd340067f5000067f500000f
:020000040000fa
:10fd3c0070b500260c4d0d4c641ba410a64209d1c5
:10fd4c000026fcf7aff90a4d0a4c641ba410a6421e
:10fd5c0005d170bdb300eb5898470136eee7b30000
:10fd6c00eb5898470136f2e7bcc00000bcc000005d
:08fd7c00bcc00000c0c0000083
:020000040000fa
:10fd8400f8b50d00096e06001400d718890418d5bb
:10fd94009f08bf00d719bc4201d1002008e02a0007
:10fda40002cc300000f0dffc431cf4d101204042bf
:10fdb400f8bd21782a00300000f0e8fa0134431c31
:08fdc400f4d0bc42f5d1e8e7e0
:020000040000fa
:10fdcc00002310b5040003604360836081810366e7
:10fddc00c28103614361836119000822583000f02d
:10fdec0003fe054b24626362044ba362044be36283
:10fdfc00044b236310bdc04685040100b90001000b
:08fe0c0039030100490a01005d
:020000040000fa
:10fe140030b5002818d0002918d00d4a0124072530
:10fe240004e003881385023000290bd00139137ec6
:10fe34002342fcd053682b40012bf2d00378138566
:10fe44000130f1e7012030bd0020fce70120fae792
:04fe54000014004254
:020000040000fa
:10fe5800f7b504000700002601914834002c01d1b1
:10fe68003000febd6368a5680093009b013b0093ca
:10fe780001d52468f2e7ab89012b08d90e22ab5ec5
:10fe8800013304d029003800019b984706436435a4
:02fe9800ebe796
:020000040000fa
:10fe9a0070b50500fdf76aff041e17d0e22023683b
:10feaa00002b14d0200000f06efb00280ad1236832
:10feba001b78012b06d00020002b08d12800fef762
:10feca00e8f904e0200000f003f800e0e22070bd49
:020000040000fa
:10feda0070b5041e18d04368002b17d01d69fd2089
:10feea00002d12d00023002200212000a847d0288c
:10fefa000bd1192000f0f7fc63681d69002300226a
:10ff0a0000212000a84700e0e22070bdfd20fce7a8
:020000040000fa
:02ff1a0070472e
:020000040000fa
:10ff1c0070b50c000025002904d0002a02d0150071
:10ff2c00022801d9280070bd084b002b04d0110009
:10ff3c00200000e000bff5e716002078013e00f03d
:10ff4c006ffc0134002ef8d1ece7c0460000000035
:020000040000fa
:10ff5c0041024300c20f490a1b0e00207e2b03dd19
:10ff6c009d2b02dd084bd0187047802000040843fd
:10ff7c00952b05dd963b9840002af5d04042f3e7df
:10ff8c009621cb1ad840f7e7ffffff7f1c210123f6
:10ff9c001b04984201d3000c10391b0a984201d360
:10ffac00000a08391b09984201d30009043902a23e
:10ffbc00105c40187047c0460403020201010101a5
:08ffcc0000000000000000002d
:020000040000fa
:10ffd40010b5ca780323134016208870012b06d964
:10ffe400032b0ed1930609d547234b7001e01b2345
:10fff4004b70080000f0b6fc002010bd27234b70a6
:020000040001f9
:0a000400f7e7e220fdf7abf9f7e79c
:020000040000fa
:020000040001f9
:10000e0070b582b00e0000f005fd002810d0c56a54
:10001e00e224002d0dd0019681681e222800fff7e4
:10002e003afd041e05d12b69002101a8984700e076
:08003e00e224200002b070bdb5
:020000040000fa
:020000040001f9
:1000480010b520230b4ce45c0023002c01d01800d1
:1000580010bd084b9880d9605a6100229a601a61d5
:10006800012199701a7021215a540121fff7c4fc0b
:080078000123ece74004002025
:020000040000fa
:020000040001f9
:100080000a4b0b4a1a600b4a9a81c02292025a60ac
:100090001a00d369002bfcd1044a136802210b43d8
:1000a0001360d369002bfcd17047c0460014004296
:0800b000040110402bf6ffffd4
:020000040000fa
:020000040001f9
:1000b800f8b51f008b8905000c001600db0505d577
:1000c8000e23c95e0022022300f000faa389054a24
:1000d80028001340a38132000e23e15e3b0000f0ac
:0800e800e1f9f8bdffefffff95
:020000040000fa
:020000040001f9
:1000f00070b582b005000478023ce4b201ae320073
:1001000001002000fff730fa32782b5de5209a429b
:1001100001d002b070bd2c1901ab5a7863789a42b5
:06012000f7d10020f5e715
:020000040000fa
:020000040001f9
:1001280010b520230a4ce45c0023002c01d01800f1
:1001380010bd074b9880dc605c6199601a619c7007
:100148001c7021229c540021fff756fc0123eee786
:04015800400400203f
:020000040000fa
:020000040001f9
:10015c000fb40b4b13b51c68002c05d0a369002bf6
:10016c0002d12000fff79cfa05ab049aa16820008d
:10017c000193fcf745fd16bc08bc04b01847c046fb
:04018c00e404002067
:020000040000fa
:020000040001f9
:1001900070b500280fd04468002c0ed0a468002c45
:1001a0000dd005682e78002e01d1ff2901d0a0477f
:1001b00070bd2979fbe7e220fae7fd20f8e7fd2092
:0201c000f6e760
:020000040000fa
:020000040001f9
:1001c400002907d0002a07d0084b1b78834205d0aa
:1001d400e1207047e220fce7e220fae7034b58688d
:1001e40008609b6813600020f3e7c046d404002035
:020000040000fa
:020000040001f9
:1001f40070b5002810d04368002b0fd01d69fd2472
:10020400002d07d0002300220121a847040001206b
:1002140000f06cfb200070bde224fbe7fd24f9e74d
:020000040000fa
:020000040001f9
:1002240010b5041e12d00368e220002b0fd01878fa
:10023400e16800f075f9002801d10023e360236828
:100244001b78062b03d10023636000e0e22010bd7d
:020000040000fa
:020000040001f9
:10025400084a1368002b09d007491818884202d8a5
:1002640010601800704701204042fbe7034b136005
:10027400f2e7c046f0040020f8060020f80400204d
:020000040000fa
:020000040001f9
:100284009e2110b5c905041cfff7f2f800280ad016
:100294009e21201cc905fcf7b1f8fff75dfe802301
:0e02a4001b06c01810bd201cfff756fefae71f
:020000040000fa
:020000040001f9
:1002b400094b5b8b5b070dd0074b80221a76072214
:1002c4005a831b7e5b0705d5034b04211a8d1a7ec6
:0c02d4000a42fbd17047c04600140042f3
:020000040000fa
:020000040001f9
:1002e00030b589b004000d00074b18686946fff768
:1002f000a7f9002801d009b030bd2a0069462000c6
:0c03000000f044fbf7e7c046e0040020da
:020000040000fa
:020000040001f9
:10030c0070b564254a1e55430e0029007031fef766
:10031c0041fb041e08d000212a00016046600c300d
:0c032c00a060643200f060fb200070bd97
:020000040000fa
:020000040001f9
:1003380070b50c000e25495f00f0c8f8a389421c6f
:1003480003d1054a1340a38170bd80225201134393
:0c035800a3816065f8e7c046ffefffffdf
:020000040000fa
:020000040001f9
:1003640070b5002600290ed0002a0cd016000028f3
:1003740009d10c001500012000f049fa013d20705c
:0c0384000134002df7d1300070bdc046e0
:020000040000fa
:020000040001f9
:10039000936810b5013b9360002b05da9469a34282
:1003a00008dbcbb20a2b05d01368581c10601970fb
:0a03b000c8b210bdfef72afafbe701
:020000040000fa
:020000040001f9
:1003ba0070b5b0b005000e0014006846fff707fae2
:1003ca00320029006846fef7f9fd21006846fef76b
:0803da0076fe002030b070bd7a
:020000040000fa
:020000040001f9
:1003e20010b500280cd00368002b0bd0f52306298a
:1003f20001d0180010bd1168fff708fe0300f8e7ee
:08040200e223f6e7e223f4e730
:020000040000fa
:020000040001f9
:10040c00bff35f8f62b6074ac220800013581b02ed
:10041c001b0ac02109060b43135080231b011360d8
:08042c007047c04600e100e04a
:020000040000fa
:020000040001f9
:10043400084b012248215a5449215a5456215a54ee
:1004440057215a5433213422995422213b2299545e
:080454007047c046004400415e
:020000040000fa
:020000040001f9
:10045c002023074ad35c0120002b07d1054b588b76
:10046c00302318401038431e9841c0b27047c04624
:08047c004004002000100042c2
:020000040000fa
:020000040001f9
:1004840070b50c000e25495f00f036f8002803db38
:10049400636d1b18636570bda389024a1340a38171
:0804a400f9e7c046ffefffff7e
:020000040000fa
:020000040001f9
:1004ac0070b50500080011000022064c22601a00ed
:1004bc0000f0f2fa431c03d12368002b00d02b6010
:0804cc0070bdc0464002002093
:020000040000fa
:020000040001f9
:1004d40070b50500080011000022064c22601a00c5
:1004e40000f0d6fa431c03d12368002b00d02b6004
:0804f40070bdc046400200206b
:020000040000fa
:020000040001f9
:1004fc0070b50500080011000022064c22601a009d
:10050c0000f0c6fa431c03d12368002b00d02b60eb
:08051c0070bdc0464002002042
:020000040000fa
:020000040001f9
:1005240010b582b00c006a4601a9fff749fe002805
:1005340006d1019b5b69e220002b01d02000984783
:0405440002b010bd34
:020000040000fa
:020000040001f9
:1005480070b500280ad04468002c09d0e568fd245d
:10055800002d01d0a8470400200070bde224fbe76d
:04056800fd24f9e78e
:020000040000fa
:020000040001f9
:10056c0070b500280ad04468002c09d02569fd24f8
:10057c00002d01d0a8470400200070bde224fbe749
:04058c00fd24f9e76a
:020000040000fa
:020000040001f9
:1005900000280bd00368002b0ad01b78043bdbb289
:1005a000002001229a424041c0b270470020fce77f
:0405b0000020fae746
:020000040000fa
:020000040001f9
:1005b40082b0002900d101a9101e06d0002b06d05c
:1005c40013780b601078431e984102b070470220e4
:0405d4004042fae7c0
:020000040000fa
:020000040001f9
:1005d800002370b5064c050008002360fff736febf
:1005e800431c03d12368002b00d02b6070bdc0468c
:0405f800400200209d
:020000040000fa
:020000040001f9
:1005fc00002370b5064c05000800236000f038faa3
:10060c00431c03d12368002b00d02b6070bdc04667
:04061c004002002078
:020000040000fa
:020000040001f9
:10062000002370b5064c050008001100236000f09f
:1006300029fa431c03d12368002b00d02b6070bd26
:040640004002002054
:020000040000fa
:020000040001f9
:10064400002370b5064c05000800236000f01cfa76
:10065400431c03d12368002b00d02b6070bdc0461f
:040664004002002030
:020000040000fa
:020000040001f9
:1006680010b500280bd0e223002906d00860080046
:10067800fef760fcfcf771fe0300180010bde223d2
:02068800fbe78e
:020000040000fa
:020000040001f9
:10068a0030313233343536373839414243444546be
:10069a000030313233343536373839616263646554
:0206aa006600e8
:020000040000fa
:020000040001f9
:1006ac0010b508238b70cb78db0706d507234b706e
:1006bc00080000f053f9002010bd27234b70f7e71a
:020000040000fa
:020000040001f9
:1006cc00002809d00368002b08d01a78ff20002ad4
:1006dc0000d070471879fce7ff20fae7ff20f8e715
:020000040000fa
:020000040001f9
:1006ec0000000000000000000000000000000000fe
:1006fc0000000000000000000000000000000000ee
:020000040000fa
:020000040001f9
:10070c0000000000000000000000000000000000dd
:10071c0000000000000000000000000000000000cd
:020000040000fa
:020000040001f9
:10072c0000000000000000000000000000000000bd
:10073c0000000000000000000000000000000000ad
:020000040000fa
:020000040001f9
:10074c0030b50024a24201d1002005e0035d651cf8
:0e075c000c5da34201d0181b30bd2c00f2e74b
:020000040000fa
:020000040001f9
:10076a0010b50c23d45e80239b011c4204d11c4388
:0e077a009481146e23431366fef7dffc10bd5e
:020000040000fa
:020000040001f9
:1007880010b5002808d0e223002903d00078fff72d
:0c07980015fd0300180010bde223fbe774
:020000040000fa
:020000040001f9
:1007a400002804d00368002b03d0988c70470248bb
:0c07b400fce70148fae7c046dc05000045
:020000040000fa
:020000040001f9
:1007c000044b1b681b6a002b00d1034b9422520080
:0c07d000985c7047e40400204402002004
:020000040000fa
:020000040001f9
:1007dc00044b1b681b6a002b00d1034bec331868cd
:0c07ec007047c046e404002044020020d6
:020000040000fa
:020000040001f9
:1007f80010b5002807d0e223002902d0fff730ff08
:0a0808000300180010bde223fbe717
:020000040000fa
:020000040001f9
:1008120000b583b000230193012101a8fff76bf813
:0a0822000028f9d0019803b000bdd2
:020000040000fa
:020000040001f9
:10082c0000b583b06b46d87101216b46d81dfff71c
:0a083c00ebfa0028f8d003b000bd6d
:020000040000fa
:020000040001f9
:100846000b1e04d0ff2a04d98a2303608b3b1800b1
:0808560070470a700123fae764
:020000040000fa
:020000040001f9
:10085e00002804d00368002b03d05878704720205e
:06086e00fce72020fae780
:020000040000fa
:020000040001f9
:10087400002804d00368002b03d0986a7047002036
:06088400fce70020fae78a
:020000040000fa
:020000040001f9
:10088a00c9b28218904201d10020704703788b4286
:06089a00fbd00130f6e77f
:020000040000fa
:020000040001f9
:1008a00010b51b238b7007234b70080000f05cf819
:0408b000002010bd57
:020000040000fa
:020000040001f9
:1008b40010b502238b7007234b70080000f052f828
:0408c400002010bd43
:020000040000fa
:020000040001f9
:1008c80000b583b00b00009200220021fef775f9f5
:0408d80003b000bdac
:020000040000fa
:020000040001f9
:1008dc0010b50301181a400101380a21fef7e2fa9b
:0408ec00013010bd0a
:020000040000fa
:020000040001f9
:1008f00010b503494143002000f0dcf810bdc046ac
:0409000080bb0000b8
:020000040000fa
:020000040001f9
:1009040010b50400006800f036f8002801d1002377
:04091400236010bd8f
:020000040000fa
:020000040001f9
:1009180010b584b00124029401940094fcf7c4fe3d
:0409280004b010bd4a
:020000040000fa
:020000040001f9
:10092c0002b4714649084900095c49008e4402bc76
:04093c007047c046fa
:020000040000fa
:020000040001f9
:1009400010b5034b01001868fdf718fe10bdc04636
:04095000e40400209b
:020000040000fa
:020000040001f9
:1009540010b5034b01001868fef720f810bdc0461f
:04096400e404002087
:020000040000fa
:020000040001f9
:1009680010b5411c40780238c0b20a18fef7f8fded
:0209780010bdb0
:020000040000fa
:020000040001f9
:10097a0010b5e223002802d0fff74ffc030018004d
:02098a0010bd9e
:020000040000fa
:020000040001f9
:10098c00002310b59a4200d110bdcc5cc454013385
:02099c00f8e77a
:020000040000fa
:020000040001f9
:10099e004a424a41802310b55200db00fdf709f8a8
:0209ae0010bd7a
:020000040000fa
:020000040001f9
:1009b000232d302b2000686c4c0065666745464748
:0109c0000036
:020000040000fa
:020000040001f9
:1009c20010b5fff78aff0100002000f072f810bd99
:020000040000fa
:020000040001f9
:1009d40010b501000148fef755fd10bde0040020ec
:020000040000fa
:020000040001f9
:1009e4002123024ad05cc0b27047c04640040020b4
:020000040000fa
:020000040001f9
:1009f40003008218934200d1704719700133f9e75c
:020000040000fa
:020000040001f9
:100a040010b50249fff726fa10bdc04655f900009b
:020000040000fa
:020000040001f9
:0e0a140010b50020fff748f900f02af8fce7c3
:020000040000fa
:020000040001f9
:0c0a2200002801d0006870470020fce7ad
:020000040000fa
:020000040001f9
:0c0a30008222014b5a60704700400041d8
:020000040000fa
:020000040001f9
:0c0a3c000022014b1a707047740000206b
:020000040000fa
:020000040001f9
:0c0a480010b50e23c95efff7d5fd10bdf0
:020000040000fa
:020000040001f9
:0c0a540080239b0100204b607047c046cf
:020000040000fa
:020000040001f9
:0b0a60004300504f53495800002e0087
:020000040000fa
:020000040001f9
:080a6c00041133430407c440e8
:020000040000fa
:020000040001f9
:080a740010b5fef70fff10bde5
:020000040000fa
:020000040001f9
:080a7c0010b500f015f810bde3
:020000040000fa
:020000040001f9
:080a840010b5fff7e5ff10bdfe
:020000040000fa
:020000040001f9
:080a8c0010b500f023f810bdc5
:020000040000fa
:020000040001f9
:080a940010b500f021f810bdbf
:020000040000fa
:020000040001f9
:080a9c0010b5fff761fc10bd6d
:020000040000fa
:020000040001f9
:080aa40010b5fff739fa10bd8f
:020000040000fa
:020000040001f9
:080aac00012040427047c046e2
:020000040000fa
:020000040001f9
:060ab4000139fdd8704776
:020000040000fa
:020000040001f9
:060aba00012040427047dc
:020000040000fa
:020000040001f9
:040ac000002070475b
:020000040000fa
:020000040001f9
:040ac4000020704757
:020000040000fa
:020000040001f9
:040ac8000020704753
:020000040000fa
:020000040001f9
:040acc000d0a00000f
:020000040000fa
:020000040001f9
:040ad0007047c04665
:020000040000fa
:020000040001f9
:040ad400b00300204b
:020000040000fa
:020000040001f9
:040ad8000120704742
:020000040000fa
:020000040001f9
:040adc00002070473f
:020000040000fa
:0200000400807a
:0440000077c700d8a6
:020000040000fa
:0200000400807a
:044004005c00ffff5e
:00000001FF
